{
  "_format": "hh-sol-artifact-1",
  "contractName": "ERC721Identifier",
  "sourceName": "contracts/ERC721Identifier.sol",
  "abi": [
    {
      "inputs": [
        {
          "internalType": "string",
          "name": "name_",
          "type": "string"
        },
        {
          "internalType": "string",
          "name": "symbol_",
          "type": "string"
        },
        {
          "internalType": "string",
          "name": "baseURI_",
          "type": "string"
        }
      ],
      "stateMutability": "nonpayable",
      "type": "constructor"
    },
    {
      "anonymous": false,
      "inputs": [
        {
          "indexed": true,
          "internalType": "address",
          "name": "owner",
          "type": "address"
        },
        {
          "indexed": true,
          "internalType": "address",
          "name": "approved",
          "type": "address"
        },
        {
          "indexed": true,
          "internalType": "uint256",
          "name": "tokenId",
          "type": "uint256"
        }
      ],
      "name": "Approval",
      "type": "event"
    },
    {
      "anonymous": false,
      "inputs": [
        {
          "indexed": true,
          "internalType": "address",
          "name": "owner",
          "type": "address"
        },
        {
          "indexed": true,
          "internalType": "address",
          "name": "operator",
          "type": "address"
        },
        {
          "indexed": false,
          "internalType": "bool",
          "name": "approved",
          "type": "bool"
        }
      ],
      "name": "ApprovalForAll",
      "type": "event"
    },
    {
      "anonymous": false,
      "inputs": [
        {
          "indexed": true,
          "internalType": "address",
          "name": "from",
          "type": "address"
        },
        {
          "indexed": true,
          "internalType": "address",
          "name": "to",
          "type": "address"
        },
        {
          "indexed": false,
          "internalType": "uint256",
          "name": "tokenID",
          "type": "uint256"
        },
        {
          "indexed": false,
          "internalType": "string",
          "name": "tokenURI",
          "type": "string"
        },
        {
          "indexed": false,
          "internalType": "uint256",
          "name": "timestamp",
          "type": "uint256"
        }
      ],
      "name": "NewIdentifierMinted",
      "type": "event"
    },
    {
      "anonymous": false,
      "inputs": [
        {
          "indexed": true,
          "internalType": "bytes32",
          "name": "role",
          "type": "bytes32"
        },
        {
          "indexed": true,
          "internalType": "bytes32",
          "name": "previousAdminRole",
          "type": "bytes32"
        },
        {
          "indexed": true,
          "internalType": "bytes32",
          "name": "newAdminRole",
          "type": "bytes32"
        }
      ],
      "name": "RoleAdminChanged",
      "type": "event"
    },
    {
      "anonymous": false,
      "inputs": [
        {
          "indexed": true,
          "internalType": "bytes32",
          "name": "role",
          "type": "bytes32"
        },
        {
          "indexed": true,
          "internalType": "address",
          "name": "account",
          "type": "address"
        },
        {
          "indexed": true,
          "internalType": "address",
          "name": "sender",
          "type": "address"
        }
      ],
      "name": "RoleGranted",
      "type": "event"
    },
    {
      "anonymous": false,
      "inputs": [
        {
          "indexed": true,
          "internalType": "bytes32",
          "name": "role",
          "type": "bytes32"
        },
        {
          "indexed": true,
          "internalType": "address",
          "name": "account",
          "type": "address"
        },
        {
          "indexed": true,
          "internalType": "address",
          "name": "sender",
          "type": "address"
        }
      ],
      "name": "RoleRevoked",
      "type": "event"
    },
    {
      "anonymous": false,
      "inputs": [
        {
          "indexed": true,
          "internalType": "address",
          "name": "from",
          "type": "address"
        },
        {
          "indexed": true,
          "internalType": "address",
          "name": "to",
          "type": "address"
        },
        {
          "indexed": true,
          "internalType": "uint256",
          "name": "tokenId",
          "type": "uint256"
        }
      ],
      "name": "Transfer",
      "type": "event"
    },
    {
      "inputs": [],
      "name": "DEFAULT_ADMIN_ROLE",
      "outputs": [
        {
          "internalType": "bytes32",
          "name": "",
          "type": "bytes32"
        }
      ],
      "stateMutability": "view",
      "type": "function"
    },
    {
      "inputs": [],
      "name": "MINTER_ROLE",
      "outputs": [
        {
          "internalType": "bytes32",
          "name": "",
          "type": "bytes32"
        }
      ],
      "stateMutability": "view",
      "type": "function"
    },
    {
      "inputs": [
        {
          "internalType": "address",
          "name": "to",
          "type": "address"
        },
        {
          "internalType": "uint256",
          "name": "tokenId",
          "type": "uint256"
        }
      ],
      "name": "approve",
      "outputs": [],
      "stateMutability": "nonpayable",
      "type": "function"
    },
    {
      "inputs": [
        {
          "internalType": "address",
          "name": "owner",
          "type": "address"
        }
      ],
      "name": "balanceOf",
      "outputs": [
        {
          "internalType": "uint256",
          "name": "",
          "type": "uint256"
        }
      ],
      "stateMutability": "view",
      "type": "function"
    },
    {
      "inputs": [
        {
          "internalType": "uint256",
          "name": "tokenId",
          "type": "uint256"
        }
      ],
      "name": "getApproved",
      "outputs": [
        {
          "internalType": "address",
          "name": "",
          "type": "address"
        }
      ],
      "stateMutability": "view",
      "type": "function"
    },
    {
      "inputs": [
        {
          "internalType": "bytes32",
          "name": "role",
          "type": "bytes32"
        }
      ],
      "name": "getRoleAdmin",
      "outputs": [
        {
          "internalType": "bytes32",
          "name": "",
          "type": "bytes32"
        }
      ],
      "stateMutability": "view",
      "type": "function"
    },
    {
      "inputs": [
        {
          "internalType": "bytes32",
          "name": "role",
          "type": "bytes32"
        },
        {
          "internalType": "address",
          "name": "account",
          "type": "address"
        }
      ],
      "name": "grantRole",
      "outputs": [],
      "stateMutability": "nonpayable",
      "type": "function"
    },
    {
      "inputs": [
        {
          "internalType": "bytes32",
          "name": "role",
          "type": "bytes32"
        },
        {
          "internalType": "address",
          "name": "account",
          "type": "address"
        }
      ],
      "name": "hasRole",
      "outputs": [
        {
          "internalType": "bool",
          "name": "",
          "type": "bool"
        }
      ],
      "stateMutability": "view",
      "type": "function"
    },
    {
      "inputs": [
        {
          "internalType": "address",
          "name": "owner",
          "type": "address"
        },
        {
          "internalType": "address",
          "name": "operator",
          "type": "address"
        }
      ],
      "name": "isApprovedForAll",
      "outputs": [
        {
          "internalType": "bool",
          "name": "",
          "type": "bool"
        }
      ],
      "stateMutability": "view",
      "type": "function"
    },
    {
      "inputs": [
        {
          "internalType": "address",
          "name": "to",
          "type": "address"
        },
        {
          "internalType": "string",
          "name": "IPFS_Hash",
          "type": "string"
        }
      ],
      "name": "mint",
      "outputs": [],
      "stateMutability": "nonpayable",
      "type": "function"
    },
    {
      "inputs": [],
      "name": "name",
      "outputs": [
        {
          "internalType": "string",
          "name": "",
          "type": "string"
        }
      ],
      "stateMutability": "view",
      "type": "function"
    },
    {
      "inputs": [
        {
          "internalType": "uint256",
          "name": "tokenId",
          "type": "uint256"
        }
      ],
      "name": "ownerOf",
      "outputs": [
        {
          "internalType": "address",
          "name": "",
          "type": "address"
        }
      ],
      "stateMutability": "view",
      "type": "function"
    },
    {
      "inputs": [
        {
          "internalType": "bytes32",
          "name": "role",
          "type": "bytes32"
        },
        {
          "internalType": "address",
          "name": "account",
          "type": "address"
        }
      ],
      "name": "renounceRole",
      "outputs": [],
      "stateMutability": "nonpayable",
      "type": "function"
    },
    {
      "inputs": [
        {
          "internalType": "bytes32",
          "name": "role",
          "type": "bytes32"
        },
        {
          "internalType": "address",
          "name": "account",
          "type": "address"
        }
      ],
      "name": "revokeRole",
      "outputs": [],
      "stateMutability": "nonpayable",
      "type": "function"
    },
    {
      "inputs": [
        {
          "internalType": "address",
          "name": "from",
          "type": "address"
        },
        {
          "internalType": "address",
          "name": "to",
          "type": "address"
        },
        {
          "internalType": "uint256",
          "name": "tokenId",
          "type": "uint256"
        }
      ],
      "name": "safeTransferFrom",
      "outputs": [],
      "stateMutability": "nonpayable",
      "type": "function"
    },
    {
      "inputs": [
        {
          "internalType": "address",
          "name": "from",
          "type": "address"
        },
        {
          "internalType": "address",
          "name": "to",
          "type": "address"
        },
        {
          "internalType": "uint256",
          "name": "tokenId",
          "type": "uint256"
        },
        {
          "internalType": "bytes",
          "name": "data",
          "type": "bytes"
        }
      ],
      "name": "safeTransferFrom",
      "outputs": [],
      "stateMutability": "nonpayable",
      "type": "function"
    },
    {
      "inputs": [
        {
          "internalType": "address",
          "name": "operator",
          "type": "address"
        },
        {
          "internalType": "bool",
          "name": "approved",
          "type": "bool"
        }
      ],
      "name": "setApprovalForAll",
      "outputs": [],
      "stateMutability": "nonpayable",
      "type": "function"
    },
    {
      "inputs": [
        {
          "internalType": "bytes4",
          "name": "interfaceId",
          "type": "bytes4"
        }
      ],
      "name": "supportsInterface",
      "outputs": [
        {
          "internalType": "bool",
          "name": "",
          "type": "bool"
        }
      ],
      "stateMutability": "view",
      "type": "function"
    },
    {
      "inputs": [],
      "name": "symbol",
      "outputs": [
        {
          "internalType": "string",
          "name": "",
          "type": "string"
        }
      ],
      "stateMutability": "view",
      "type": "function"
    },
    {
      "inputs": [
        {
          "internalType": "uint256",
          "name": "index",
          "type": "uint256"
        }
      ],
      "name": "tokenByIndex",
      "outputs": [
        {
          "internalType": "uint256",
          "name": "",
          "type": "uint256"
        }
      ],
      "stateMutability": "view",
      "type": "function"
    },
    {
      "inputs": [
        {
          "internalType": "address",
          "name": "owner",
          "type": "address"
        },
        {
          "internalType": "uint256",
          "name": "index",
          "type": "uint256"
        }
      ],
      "name": "tokenOfOwnerByIndex",
      "outputs": [
        {
          "internalType": "uint256",
          "name": "",
          "type": "uint256"
        }
      ],
      "stateMutability": "view",
      "type": "function"
    },
    {
      "inputs": [
        {
          "internalType": "uint256",
          "name": "tokenId",
          "type": "uint256"
        }
      ],
      "name": "tokenURI",
      "outputs": [
        {
          "internalType": "string",
          "name": "",
          "type": "string"
        }
      ],
      "stateMutability": "view",
      "type": "function"
    },
    {
      "inputs": [],
      "name": "totalSupply",
      "outputs": [
        {
          "internalType": "uint256",
          "name": "",
          "type": "uint256"
        }
      ],
      "stateMutability": "view",
      "type": "function"
    },
    {
      "inputs": [
        {
          "internalType": "address",
          "name": "from",
          "type": "address"
        },
        {
          "internalType": "address",
          "name": "to",
          "type": "address"
        },
        {
          "internalType": "uint256",
          "name": "tokenId",
          "type": "uint256"
        }
      ],
      "name": "transferFrom",
      "outputs": [],
      "stateMutability": "nonpayable",
      "type": "function"
    }
  ],
  "bytecode": "0x608060405260405180602001604052806000815250600c90805190602001906200002b92919062000262565b503480156200003957600080fd5b5060405162004c4a38038062004c4a83398181016040528101906200005f919062000384565b828281600090805190602001906200007992919062000262565b5080600190805190602001906200009292919062000262565b505050620000c77f9f2df0fed2c77648de5860a4cc508cd0818c85b8b8a1ab4ceeef8d981c8956a633620000e160201b60201c565b620000d881620001d360201b60201c565b50505062000595565b620000f38282620001ef60201b60201c565b620001cf576001600a600084815260200190815260200160002060000160008373ffffffffffffffffffffffffffffffffffffffff1673ffffffffffffffffffffffffffffffffffffffff16815260200190815260200160002060006101000a81548160ff021916908315150217905550620001746200025a60201b60201c565b73ffffffffffffffffffffffffffffffffffffffff168173ffffffffffffffffffffffffffffffffffffffff16837f2f8788117e7eff1d82e926ec794901d17c78024a50270940304540a733656f0d60405160405180910390a45b5050565b80600c9080519060200190620001eb92919062000262565b5050565b6000600a600084815260200190815260200160002060000160008373ffffffffffffffffffffffffffffffffffffffff1673ffffffffffffffffffffffffffffffffffffffff16815260200190815260200160002060009054906101000a900460ff16905092915050565b600033905090565b8280546200027090620004ba565b90600052602060002090601f016020900481019282620002945760008555620002e0565b82601f10620002af57805160ff1916838001178555620002e0565b82800160010185558215620002e0579182015b82811115620002df578251825591602001919060010190620002c2565b5b509050620002ef9190620002f3565b5090565b5b808211156200030e576000816000905550600101620002f4565b5090565b60006200032962000323846200044e565b62000425565b9050828152602081018484840111156200034257600080fd5b6200034f84828562000484565b509392505050565b600082601f8301126200036957600080fd5b81516200037b84826020860162000312565b91505092915050565b6000806000606084860312156200039a57600080fd5b600084015167ffffffffffffffff811115620003b557600080fd5b620003c38682870162000357565b935050602084015167ffffffffffffffff811115620003e157600080fd5b620003ef8682870162000357565b925050604084015167ffffffffffffffff8111156200040d57600080fd5b6200041b8682870162000357565b9150509250925092565b60006200043162000444565b90506200043f8282620004f0565b919050565b6000604051905090565b600067ffffffffffffffff8211156200046c576200046b62000555565b5b620004778262000584565b9050602081019050919050565b60005b83811015620004a457808201518184015260208101905062000487565b83811115620004b4576000848401525b50505050565b60006002820490506001821680620004d357607f821691505b60208210811415620004ea57620004e962000526565b5b50919050565b620004fb8262000584565b810181811067ffffffffffffffff821117156200051d576200051c62000555565b5b80604052505050565b7f4e487b7100000000000000000000000000000000000000000000000000000000600052602260045260246000fd5b7f4e487b7100000000000000000000000000000000000000000000000000000000600052604160045260246000fd5b6000601f19601f8301169050919050565b6146a580620005a56000396000f3fe608060405234801561001057600080fd5b50600436106101585760003560e01c80636352211e116100c3578063b88d4fde1161007c578063b88d4fde146103fd578063c87b56dd14610419578063d0def52114610449578063d539139314610465578063d547741f14610483578063e985e9c51461049f57610158565b80636352211e1461031557806370a082311461034557806391d148541461037557806395d89b41146103a5578063a217fddf146103c3578063a22cb465146103e157610158565b8063248a9ca311610115578063248a9ca3146102315780632f2ff15d146102615780632f745c591461027d57806336568abe146102ad57806342842e0e146102c95780634f6ccce7146102e557610158565b806301ffc9a71461015d57806306fdde031461018d578063081812fc146101ab578063095ea7b3146101db57806318160ddd146101f757806323b872dd14610215575b600080fd5b61017760048036038101906101729190613159565b6104cf565b604051610184919061369d565b60405180910390f35b610195610619565b6040516101a291906136d3565b60405180910390f35b6101c560048036038101906101c091906131ab565b6106ab565b6040516101d29190613636565b60405180910390f35b6101f560048036038101906101f091906130b8565b6106f1565b005b6101ff610809565b60405161020c91906139e8565b60405180910390f35b61022f600480360381019061022a9190612f5e565b610816565b005b61024b600480360381019061024691906130f4565b610876565b60405161025891906136b8565b60405180910390f35b61027b6004803603810190610276919061311d565b610896565b005b610297600480360381019061029291906130b8565b6108b7565b6040516102a491906139e8565b60405180910390f35b6102c760048036038101906102c2919061311d565b61095c565b005b6102e360048036038101906102de9190612f5e565b6109df565b005b6102ff60048036038101906102fa91906131ab565b6109ff565b60405161030c91906139e8565b60405180910390f35b61032f600480360381019061032a91906131ab565b610a96565b60405161033c9190613636565b60405180910390f35b61035f600480360381019061035a9190612ef9565b610b48565b60405161036c91906139e8565b60405180910390f35b61038f600480360381019061038a919061311d565b610c00565b60405161039c919061369d565b60405180910390f35b6103ad610c6b565b6040516103ba91906136d3565b60405180910390f35b6103cb610cfd565b6040516103d891906136b8565b60405180910390f35b6103fb60048036038101906103f69190613028565b610d04565b005b61041760048036038101906104129190612fad565b610d1a565b005b610433600480360381019061042e91906131ab565b610d7c565b60405161044091906136d3565b60405180910390f35b610463600480360381019061045e9190613064565b610ece565b005b61046d611005565b60405161047a91906136b8565b60405180910390f35b61049d6004803603810190610498919061311d565b611029565b005b6104b960048036038101906104b49190612f22565b61104a565b6040516104c6919061369d565b60405180910390f35b60007f80ac58cd000000000000000000000000000000000000000000000000000000007bffffffffffffffffffffffffffffffffffffffffffffffffffffffff1916827bffffffffffffffffffffffffffffffffffffffffffffffffffffffff1916148061059a57507f5b5e139f000000000000000000000000000000000000000000000000000000007bffffffffffffffffffffffffffffffffffffffffffffffffffffffff1916827bffffffffffffffffffffffffffffffffffffffffffffffffffffffff1916145b8061060257507f780e9d63000000000000000000000000000000000000000000000000000000007bffffffffffffffffffffffffffffffffffffffffffffffffffffffff1916827bffffffffffffffffffffffffffffffffffffffffffffffffffffffff1916145b806106125750610611826110de565b5b9050919050565b60606000805461062890613d0a565b80601f016020809104026020016040519081016040528092919081815260200182805461065490613d0a565b80156106a15780601f10610676576101008083540402835291602001916106a1565b820191906000526020600020905b81548152906001019060200180831161068457829003601f168201915b5050505050905090565b60006106b682611158565b6004600083815260200190815260200160002060009054906101000a900473ffffffffffffffffffffffffffffffffffffffff169050919050565b60006106fc82610a96565b90508073ffffffffffffffffffffffffffffffffffffffff168373ffffffffffffffffffffffffffffffffffffffff16141561076d576040517f08c379a000000000000000000000000000000000000000000000000000000000815260040161076490613948565b60405180910390fd5b8073ffffffffffffffffffffffffffffffffffffffff1661078c6111a3565b73ffffffffffffffffffffffffffffffffffffffff1614806107bb57506107ba816107b56111a3565b61104a565b5b6107fa576040517f08c379a00000000000000000000000000000000000000000000000000000000081526004016107f1906138a8565b60405180910390fd5b61080483836111ab565b505050565b6000600880549050905090565b6108276108216111a3565b82611264565b610866576040517f08c379a000000000000000000000000000000000000000000000000000000000815260040161085d906139a8565b60405180910390fd5b6108718383836112f9565b505050565b6000600a6000838152602001908152602001600020600101549050919050565b61089f82610876565b6108a881611560565b6108b28383611574565b505050565b60006108c283610b48565b8210610903576040517f08c379a00000000000000000000000000000000000000000000000000000000081526004016108fa90613768565b60405180910390fd5b600660008473ffffffffffffffffffffffffffffffffffffffff1673ffffffffffffffffffffffffffffffffffffffff168152602001908152602001600020600083815260200190815260200160002054905092915050565b6109646111a3565b73ffffffffffffffffffffffffffffffffffffffff168173ffffffffffffffffffffffffffffffffffffffff16146109d1576040517f08c379a00000000000000000000000000000000000000000000000000000000081526004016109c8906139c8565b60405180910390fd5b6109db8282611655565b5050565b6109fa83838360405180602001604052806000815250610d1a565b505050565b6000610a09610809565b8210610a4a576040517f08c379a0000000000000000000000000000000000000000000000000000000008152600401610a4190613988565b60405180910390fd5b60088281548110610a84577f4e487b7100000000000000000000000000000000000000000000000000000000600052603260045260246000fd5b90600052602060002001549050919050565b6000806002600084815260200190815260200160002060009054906101000a900473ffffffffffffffffffffffffffffffffffffffff169050600073ffffffffffffffffffffffffffffffffffffffff168173ffffffffffffffffffffffffffffffffffffffff161415610b3f576040517f08c379a0000000000000000000000000000000000000000000000000000000008152600401610b3690613928565b60405180910390fd5b80915050919050565b60008073ffffffffffffffffffffffffffffffffffffffff168273ffffffffffffffffffffffffffffffffffffffff161415610bb9576040517f08c379a0000000000000000000000000000000000000000000000000000000008152600401610bb090613848565b60405180910390fd5b600360008373ffffffffffffffffffffffffffffffffffffffff1673ffffffffffffffffffffffffffffffffffffffff168152602001908152602001600020549050919050565b6000600a600084815260200190815260200160002060000160008373ffffffffffffffffffffffffffffffffffffffff1673ffffffffffffffffffffffffffffffffffffffff16815260200190815260200160002060009054906101000a900460ff16905092915050565b606060018054610c7a90613d0a565b80601f0160208091040260200160405190810160405280929190818152602001828054610ca690613d0a565b8015610cf35780601f10610cc857610100808354040283529160200191610cf3565b820191906000526020600020905b815481529060010190602001808311610cd657829003601f168201915b5050505050905090565b6000801b81565b610d16610d0f6111a3565b8383611737565b5050565b610d2b610d256111a3565b83611264565b610d6a576040517f08c379a0000000000000000000000000000000000000000000000000000000008152600401610d61906139a8565b60405180910390fd5b610d76848484846118a4565b50505050565b6060610d8782611900565b610dc6576040517f08c379a0000000000000000000000000000000000000000000000000000000008152600401610dbd90613908565b60405180910390fd5b6000600d60008481526020019081526020016000208054610de690613d0a565b80601f0160208091040260200160405190810160405280929190818152602001828054610e1290613d0a565b8015610e5f5780601f10610e3457610100808354040283529160200191610e5f565b820191906000526020600020905b815481529060010190602001808311610e4257829003601f168201915b505050505090506000610e7061196c565b9050600081511415610e86578192505050610ec9565b600082511115610ebb578082604051602001610ea39291906135d8565b60405160208183030381529060405292505050610ec9565b610ec4846119fe565b925050505b919050565b610ef87f9f2df0fed2c77648de5860a4cc508cd0818c85b8b8a1ab4ceeef8d981c8956a633610c00565b610f37576040517f08c379a0000000000000000000000000000000000000000000000000000000008152600401610f2e906137a8565b60405180910390fd5b610f41600b611a66565b6000610f4d600b611a7c565b9050610f598382611a8a565b610f638183611c64565b610f8f6040518060600160405280602f8152602001614641602f91398483610f8a85610d7c565b611cd8565b8273ffffffffffffffffffffffffffffffffffffffff163373ffffffffffffffffffffffffffffffffffffffff167f77cc8f51d28eb35d860cdc87dcd3e72339bc544e5372744a88683d4fe5401de583610fe885610d7c565b42604051610ff893929190613a03565b60405180910390a3505050565b7f9f2df0fed2c77648de5860a4cc508cd0818c85b8b8a1ab4ceeef8d981c8956a681565b61103282610876565b61103b81611560565b6110458383611655565b505050565b6000600560008473ffffffffffffffffffffffffffffffffffffffff1673ffffffffffffffffffffffffffffffffffffffff16815260200190815260200160002060008373ffffffffffffffffffffffffffffffffffffffff1673ffffffffffffffffffffffffffffffffffffffff16815260200190815260200160002060009054906101000a900460ff16905092915050565b60007f7965db0b000000000000000000000000000000000000000000000000000000007bffffffffffffffffffffffffffffffffffffffffffffffffffffffff1916827bffffffffffffffffffffffffffffffffffffffffffffffffffffffff19161480611151575061115082611d7a565b5b9050919050565b61116181611900565b6111a0576040517f08c379a000000000000000000000000000000000000000000000000000000000815260040161119790613928565b60405180910390fd5b50565b600033905090565b816004600083815260200190815260200160002060006101000a81548173ffffffffffffffffffffffffffffffffffffffff021916908373ffffffffffffffffffffffffffffffffffffffff160217905550808273ffffffffffffffffffffffffffffffffffffffff1661121e83610a96565b73ffffffffffffffffffffffffffffffffffffffff167f8c5be1e5ebec7d5bd14f71427d1e84f3dd0314c0f7b2291e5b200ac8c7c3b92560405160405180910390a45050565b60008061127083610a96565b90508073ffffffffffffffffffffffffffffffffffffffff168473ffffffffffffffffffffffffffffffffffffffff1614806112b257506112b1818561104a565b5b806112f057508373ffffffffffffffffffffffffffffffffffffffff166112d8846106ab565b73ffffffffffffffffffffffffffffffffffffffff16145b91505092915050565b8273ffffffffffffffffffffffffffffffffffffffff1661131982610a96565b73ffffffffffffffffffffffffffffffffffffffff161461136f576040517f08c379a0000000000000000000000000000000000000000000000000000000008152600401611366906137c8565b60405180910390fd5b600073ffffffffffffffffffffffffffffffffffffffff168273ffffffffffffffffffffffffffffffffffffffff1614156113df576040517f08c379a00000000000000000000000000000000000000000000000000000000081526004016113d690613808565b60405180910390fd5b6113ea838383611df4565b6113f56000826111ab565b6001600360008573ffffffffffffffffffffffffffffffffffffffff1673ffffffffffffffffffffffffffffffffffffffff16815260200190815260200160002060008282546114459190613bec565b925050819055506001600360008473ffffffffffffffffffffffffffffffffffffffff1673ffffffffffffffffffffffffffffffffffffffff168152602001908152602001600020600082825461149c9190613b0b565b92505081905550816002600083815260200190815260200160002060006101000a81548173ffffffffffffffffffffffffffffffffffffffff021916908373ffffffffffffffffffffffffffffffffffffffff160217905550808273ffffffffffffffffffffffffffffffffffffffff168473ffffffffffffffffffffffffffffffffffffffff167fddf252ad1be2c89b69c2b068fc378daa952ba7f163c4a11628f55a4df523b3ef60405160405180910390a461155b838383611f66565b505050565b6115718161156c6111a3565b611f6b565b50565b61157e8282610c00565b611651576001600a600084815260200190815260200160002060000160008373ffffffffffffffffffffffffffffffffffffffff1673ffffffffffffffffffffffffffffffffffffffff16815260200190815260200160002060006101000a81548160ff0219169083151502179055506115f66111a3565b73ffffffffffffffffffffffffffffffffffffffff168173ffffffffffffffffffffffffffffffffffffffff16837f2f8788117e7eff1d82e926ec794901d17c78024a50270940304540a733656f0d60405160405180910390a45b5050565b61165f8282610c00565b15611733576000600a600084815260200190815260200160002060000160008373ffffffffffffffffffffffffffffffffffffffff1673ffffffffffffffffffffffffffffffffffffffff16815260200190815260200160002060006101000a81548160ff0219169083151502179055506116d86111a3565b73ffffffffffffffffffffffffffffffffffffffff168173ffffffffffffffffffffffffffffffffffffffff16837ff6391f5c32d9c69d2a47ea670b442974b53935d1edc7fd64eb21e047a839171b60405160405180910390a45b5050565b8173ffffffffffffffffffffffffffffffffffffffff168373ffffffffffffffffffffffffffffffffffffffff1614156117a6576040517f08c379a000000000000000000000000000000000000000000000000000000000815260040161179d90613828565b60405180910390fd5b80600560008573ffffffffffffffffffffffffffffffffffffffff1673ffffffffffffffffffffffffffffffffffffffff16815260200190815260200160002060008473ffffffffffffffffffffffffffffffffffffffff1673ffffffffffffffffffffffffffffffffffffffff16815260200190815260200160002060006101000a81548160ff0219169083151502179055508173ffffffffffffffffffffffffffffffffffffffff168373ffffffffffffffffffffffffffffffffffffffff167f17307eab39ab6107e8899845ad3d59bd9653f200f220920489ca2b5937696c3183604051611897919061369d565b60405180910390a3505050565b6118af8484846112f9565b6118bb84848484612008565b6118fa576040517f08c379a00000000000000000000000000000000000000000000000000000000081526004016118f190613788565b60405180910390fd5b50505050565b60008073ffffffffffffffffffffffffffffffffffffffff166002600084815260200190815260200160002060009054906101000a900473ffffffffffffffffffffffffffffffffffffffff1673ffffffffffffffffffffffffffffffffffffffff1614159050919050565b6060600c805461197b90613d0a565b80601f01602080910402602001604051908101604052809291908181526020018280546119a790613d0a565b80156119f45780601f106119c9576101008083540402835291602001916119f4565b820191906000526020600020905b8154815290600101906020018083116119d757829003601f168201915b5050505050905090565b6060611a0982611158565b6000611a1361196c565b90506000815111611a335760405180602001604052806000815250611a5e565b80611a3d8461219f565b604051602001611a4e9291906135d8565b6040516020818303038152906040525b915050919050565b6001816000016000828254019250508190555050565b600081600001549050919050565b600073ffffffffffffffffffffffffffffffffffffffff168273ffffffffffffffffffffffffffffffffffffffff161415611afa576040517f08c379a0000000000000000000000000000000000000000000000000000000008152600401611af1906138c8565b60405180910390fd5b611b0381611900565b15611b43576040517f08c379a0000000000000000000000000000000000000000000000000000000008152600401611b3a906137e8565b60405180910390fd5b611b4f60008383611df4565b6001600360008473ffffffffffffffffffffffffffffffffffffffff1673ffffffffffffffffffffffffffffffffffffffff1681526020019081526020016000206000828254611b9f9190613b0b565b92505081905550816002600083815260200190815260200160002060006101000a81548173ffffffffffffffffffffffffffffffffffffffff021916908373ffffffffffffffffffffffffffffffffffffffff160217905550808273ffffffffffffffffffffffffffffffffffffffff16600073ffffffffffffffffffffffffffffffffffffffff167fddf252ad1be2c89b69c2b068fc378daa952ba7f163c4a11628f55a4df523b3ef60405160405180910390a4611c6060008383611f66565b5050565b611c6d82611900565b611cac576040517f08c379a0000000000000000000000000000000000000000000000000000000008152600401611ca390613888565b60405180910390fd5b80600d60008481526020019081526020016000209080519060200190611cd3929190612d08565b505050565b611d7484848484604051602401611cf294939291906136f5565b6040516020818303038152906040527f4c55f234000000000000000000000000000000000000000000000000000000007bffffffffffffffffffffffffffffffffffffffffffffffffffffffff19166020820180517bffffffffffffffffffffffffffffffffffffffffffffffffffffffff838183161783525050505061234c565b50505050565b60007f780e9d63000000000000000000000000000000000000000000000000000000007bffffffffffffffffffffffffffffffffffffffffffffffffffffffff1916827bffffffffffffffffffffffffffffffffffffffffffffffffffffffff19161480611ded5750611dec82612375565b5b9050919050565b611e326040518060400160405280601b81526020017f436865636b696e6720696620686173206d696e74657220726f6c650000000000815250612457565b611e5c7f9f2df0fed2c77648de5860a4cc508cd0818c85b8b8a1ab4ceeef8d981c8956a633610c00565b611e9b576040517f08c379a0000000000000000000000000000000000000000000000000000000008152600401611e9290613968565b60405180910390fd5b600073ffffffffffffffffffffffffffffffffffffffff168273ffffffffffffffffffffffffffffffffffffffff161415611f0b576040517f08c379a0000000000000000000000000000000000000000000000000000000008152600401611f0290613868565b60405180910390fd5b6000611f1683610b48565b14611f56576040517f08c379a0000000000000000000000000000000000000000000000000000000008152600401611f4d906138e8565b60405180910390fd5b611f618383836124f0565b505050565b505050565b611f758282610c00565b61200457611f9a8173ffffffffffffffffffffffffffffffffffffffff166014612604565b611fa88360001c6020612604565b604051602001611fb99291906135fc565b6040516020818303038152906040526040517f08c379a0000000000000000000000000000000000000000000000000000000008152600401611ffb91906136d3565b60405180910390fd5b5050565b60006120298473ffffffffffffffffffffffffffffffffffffffff166128fe565b15612192578373ffffffffffffffffffffffffffffffffffffffff1663150b7a026120526111a3565b8786866040518563ffffffff1660e01b81526004016120749493929190613651565b602060405180830381600087803b15801561208e57600080fd5b505af19250505080156120bf57506040513d601f19601f820116820180604052508101906120bc9190613182565b60015b612142573d80600081146120ef576040519150601f19603f3d011682016040523d82523d6000602084013e6120f4565b606091505b5060008151141561213a576040517f08c379a000000000000000000000000000000000000000000000000000000000815260040161213190613788565b60405180910390fd5b805181602001fd5b63150b7a0260e01b7bffffffffffffffffffffffffffffffffffffffffffffffffffffffff1916817bffffffffffffffffffffffffffffffffffffffffffffffffffffffff191614915050612197565b600190505b949350505050565b606060008214156121e7576040518060400160405280600181526020017f30000000000000000000000000000000000000000000000000000000000000008152509050612347565b600082905060005b6000821461221957808061220290613d6d565b915050600a826122129190613b61565b91506121ef565b60008167ffffffffffffffff81111561225b577f4e487b7100000000000000000000000000000000000000000000000000000000600052604160045260246000fd5b6040519080825280601f01601f19166020018201604052801561228d5781602001600182028036833780820191505090505b5090505b60008514612340576001826122a69190613bec565b9150600a856122b59190613db6565b60306122c19190613b0b565b60f81b8183815181106122fd577f4e487b7100000000000000000000000000000000000000000000000000000000600052603260045260246000fd5b60200101907effffffffffffffffffffffffffffffffffffffffffffffffffffffffffffff1916908160001a905350600a856123399190613b61565b9450612291565b8093505050505b919050565b60008151905060006a636f6e736f6c652e6c6f679050602083016000808483855afa5050505050565b60007f80ac58cd000000000000000000000000000000000000000000000000000000007bffffffffffffffffffffffffffffffffffffffffffffffffffffffff1916827bffffffffffffffffffffffffffffffffffffffffffffffffffffffff1916148061244057507f5b5e139f000000000000000000000000000000000000000000000000000000007bffffffffffffffffffffffffffffffffffffffffffffffffffffffff1916827bffffffffffffffffffffffffffffffffffffffffffffffffffffffff1916145b80612450575061244f82612921565b5b9050919050565b6124ed8160405160240161246b91906136d3565b6040516020818303038152906040527f41304fac000000000000000000000000000000000000000000000000000000007bffffffffffffffffffffffffffffffffffffffffffffffffffffffff19166020820180517bffffffffffffffffffffffffffffffffffffffffffffffffffffffff838183161783525050505061234c565b50565b6124fb83838361298b565b600073ffffffffffffffffffffffffffffffffffffffff168373ffffffffffffffffffffffffffffffffffffffff16141561253e5761253981612990565b61257d565b8173ffffffffffffffffffffffffffffffffffffffff168373ffffffffffffffffffffffffffffffffffffffff161461257c5761257b83826129d9565b5b5b600073ffffffffffffffffffffffffffffffffffffffff168273ffffffffffffffffffffffffffffffffffffffff1614156125c0576125bb81612b46565b6125ff565b8273ffffffffffffffffffffffffffffffffffffffff168273ffffffffffffffffffffffffffffffffffffffff16146125fe576125fd8282612c89565b5b5b505050565b6060600060028360026126179190613b92565b6126219190613b0b565b67ffffffffffffffff811115612660577f4e487b7100000000000000000000000000000000000000000000000000000000600052604160045260246000fd5b6040519080825280601f01601f1916602001820160405280156126925781602001600182028036833780820191505090505b5090507f3000000000000000000000000000000000000000000000000000000000000000816000815181106126f0577f4e487b7100000000000000000000000000000000000000000000000000000000600052603260045260246000fd5b60200101907effffffffffffffffffffffffffffffffffffffffffffffffffffffffffffff1916908160001a9053507f78000000000000000000000000000000000000000000000000000000000000008160018151811061277a577f4e487b7100000000000000000000000000000000000000000000000000000000600052603260045260246000fd5b60200101907effffffffffffffffffffffffffffffffffffffffffffffffffffffffffffff1916908160001a905350600060018460026127ba9190613b92565b6127c49190613b0b565b90505b60018111156128b0577f3031323334353637383961626364656600000000000000000000000000000000600f86166010811061282c577f4e487b7100000000000000000000000000000000000000000000000000000000600052603260045260246000fd5b1a60f81b828281518110612869577f4e487b7100000000000000000000000000000000000000000000000000000000600052603260045260246000fd5b60200101907effffffffffffffffffffffffffffffffffffffffffffffffffffffffffffff1916908160001a905350600485901c9450806128a990613ce0565b90506127c7565b50600084146128f4576040517f08c379a00000000000000000000000000000000000000000000000000000000081526004016128eb90613748565b60405180910390fd5b8091505092915050565b6000808273ffffffffffffffffffffffffffffffffffffffff163b119050919050565b60007f01ffc9a7000000000000000000000000000000000000000000000000000000007bffffffffffffffffffffffffffffffffffffffffffffffffffffffff1916827bffffffffffffffffffffffffffffffffffffffffffffffffffffffff1916149050919050565b505050565b6008805490506009600083815260200190815260200160002081905550600881908060018154018082558091505060019003906000526020600020016000909190919091505550565b600060016129e684610b48565b6129f09190613bec565b9050600060076000848152602001908152602001600020549050818114612ad5576000600660008673ffffffffffffffffffffffffffffffffffffffff1673ffffffffffffffffffffffffffffffffffffffff168152602001908152602001600020600084815260200190815260200160002054905080600660008773ffffffffffffffffffffffffffffffffffffffff1673ffffffffffffffffffffffffffffffffffffffff168152602001908152602001600020600084815260200190815260200160002081905550816007600083815260200190815260200160002081905550505b6007600084815260200190815260200160002060009055600660008573ffffffffffffffffffffffffffffffffffffffff1673ffffffffffffffffffffffffffffffffffffffff16815260200190815260200160002060008381526020019081526020016000206000905550505050565b60006001600880549050612b5a9190613bec565b9050600060096000848152602001908152602001600020549050600060088381548110612bb0577f4e487b7100000000000000000000000000000000000000000000000000000000600052603260045260246000fd5b906000526020600020015490508060088381548110612bf8577f4e487b7100000000000000000000000000000000000000000000000000000000600052603260045260246000fd5b906000526020600020018190555081600960008381526020019081526020016000208190555060096000858152602001908152602001600020600090556008805480612c6d577f4e487b7100000000000000000000000000000000000000000000000000000000600052603160045260246000fd5b6001900381819060005260206000200160009055905550505050565b6000612c9483610b48565b905081600660008573ffffffffffffffffffffffffffffffffffffffff1673ffffffffffffffffffffffffffffffffffffffff168152602001908152602001600020600083815260200190815260200160002081905550806007600084815260200190815260200160002081905550505050565b828054612d1490613d0a565b90600052602060002090601f016020900481019282612d365760008555612d7d565b82601f10612d4f57805160ff1916838001178555612d7d565b82800160010185558215612d7d579182015b82811115612d7c578251825591602001919060010190612d61565b5b509050612d8a9190612d8e565b5090565b5b80821115612da7576000816000905550600101612d8f565b5090565b6000612dbe612db984613a66565b613a41565b905082815260208101848484011115612dd657600080fd5b612de1848285613c9e565b509392505050565b6000612dfc612df784613a97565b613a41565b905082815260208101848484011115612e1457600080fd5b612e1f848285613c9e565b509392505050565b600081359050612e36816145cd565b92915050565b600081359050612e4b816145e4565b92915050565b600081359050612e60816145fb565b92915050565b600081359050612e7581614612565b92915050565b600081519050612e8a81614612565b92915050565b600082601f830112612ea157600080fd5b8135612eb1848260208601612dab565b91505092915050565b600082601f830112612ecb57600080fd5b8135612edb848260208601612de9565b91505092915050565b600081359050612ef381614629565b92915050565b600060208284031215612f0b57600080fd5b6000612f1984828501612e27565b91505092915050565b60008060408385031215612f3557600080fd5b6000612f4385828601612e27565b9250506020612f5485828601612e27565b9150509250929050565b600080600060608486031215612f7357600080fd5b6000612f8186828701612e27565b9350506020612f9286828701612e27565b9250506040612fa386828701612ee4565b9150509250925092565b60008060008060808587031215612fc357600080fd5b6000612fd187828801612e27565b9450506020612fe287828801612e27565b9350506040612ff387828801612ee4565b925050606085013567ffffffffffffffff81111561301057600080fd5b61301c87828801612e90565b91505092959194509250565b6000806040838503121561303b57600080fd5b600061304985828601612e27565b925050602061305a85828601612e3c565b9150509250929050565b6000806040838503121561307757600080fd5b600061308585828601612e27565b925050602083013567ffffffffffffffff8111156130a257600080fd5b6130ae85828601612eba565b9150509250929050565b600080604083850312156130cb57600080fd5b60006130d985828601612e27565b92505060206130ea85828601612ee4565b9150509250929050565b60006020828403121561310657600080fd5b600061311484828501612e51565b91505092915050565b6000806040838503121561313057600080fd5b600061313e85828601612e51565b925050602061314f85828601612e27565b9150509250929050565b60006020828403121561316b57600080fd5b600061317984828501612e66565b91505092915050565b60006020828403121561319457600080fd5b60006131a284828501612e7b565b91505092915050565b6000602082840312156131bd57600080fd5b60006131cb84828501612ee4565b91505092915050565b6131dd81613c20565b82525050565b6131ec81613c32565b82525050565b6131fb81613c3e565b82525050565b600061320c82613ac8565b6132168185613ade565b9350613226818560208601613cad565b61322f81613ea3565b840191505092915050565b600061324582613ad3565b61324f8185613aef565b935061325f818560208601613cad565b61326881613ea3565b840191505092915050565b600061327e82613ad3565b6132888185613b00565b9350613298818560208601613cad565b80840191505092915050565b60006132b1602083613aef565b91506132bc82613eb4565b602082019050919050565b60006132d4602b83613aef565b91506132df82613edd565b604082019050919050565b60006132f7603283613aef565b915061330282613f2c565b604082019050919050565b600061331a605e83613aef565b915061332582613f7b565b606082019050919050565b600061333d602583613aef565b915061334882613ff0565b604082019050919050565b6000613360601c83613aef565b915061336b8261403f565b602082019050919050565b6000613383602483613aef565b915061338e82614068565b604082019050919050565b60006133a6601983613aef565b91506133b1826140b7565b602082019050919050565b60006133c9602983613aef565b91506133d4826140e0565b604082019050919050565b60006133ec607d83613aef565b91506133f78261412f565b608082019050919050565b600061340f602e83613aef565b915061341a826141ca565b604082019050919050565b6000613432603e83613aef565b915061343d82614219565b604082019050919050565b6000613455602083613aef565b915061346082614268565b602082019050919050565b6000613478604483613aef565b915061348382614291565b606082019050919050565b600061349b603183613aef565b91506134a682614306565b604082019050919050565b60006134be601883613aef565b91506134c982614355565b602082019050919050565b60006134e1602183613aef565b91506134ec8261437e565b604082019050919050565b6000613504608783613aef565b915061350f826143cd565b60a082019050919050565b6000613527602c83613aef565b91506135328261448e565b604082019050919050565b600061354a601783613b00565b9150613555826144dd565b601782019050919050565b600061356d602e83613aef565b915061357882614506565b604082019050919050565b6000613590601183613b00565b915061359b82614555565b601182019050919050565b60006135b3602f83613aef565b91506135be8261457e565b604082019050919050565b6135d281613c94565b82525050565b60006135e48285613273565b91506135f08284613273565b91508190509392505050565b60006136078261353d565b91506136138285613273565b915061361e82613583565b915061362a8284613273565b91508190509392505050565b600060208201905061364b60008301846131d4565b92915050565b600060808201905061366660008301876131d4565b61367360208301866131d4565b61368060408301856135c9565b81810360608301526136928184613201565b905095945050505050565b60006020820190506136b260008301846131e3565b92915050565b60006020820190506136cd60008301846131f2565b92915050565b600060208201905081810360008301526136ed818461323a565b905092915050565b6000608082019050818103600083015261370f818761323a565b905061371e60208301866131d4565b61372b60408301856135c9565b818103606083015261373d818461323a565b905095945050505050565b60006020820190508181036000830152613761816132a4565b9050919050565b60006020820190508181036000830152613781816132c7565b9050919050565b600060208201905081810360008301526137a1816132ea565b9050919050565b600060208201905081810360008301526137c18161330d565b9050919050565b600060208201905081810360008301526137e181613330565b9050919050565b6000602082019050818103600083015261380181613353565b9050919050565b6000602082019050818103600083015261382181613376565b9050919050565b6000602082019050818103600083015261384181613399565b9050919050565b60006020820190508181036000830152613861816133bc565b9050919050565b60006020820190508181036000830152613881816133df565b9050919050565b600060208201905081810360008301526138a181613402565b9050919050565b600060208201905081810360008301526138c181613425565b9050919050565b600060208201905081810360008301526138e181613448565b9050919050565b600060208201905081810360008301526139018161346b565b9050919050565b600060208201905081810360008301526139218161348e565b9050919050565b60006020820190508181036000830152613941816134b1565b9050919050565b60006020820190508181036000830152613961816134d4565b9050919050565b60006020820190508181036000830152613981816134f7565b9050919050565b600060208201905081810360008301526139a18161351a565b9050919050565b600060208201905081810360008301526139c181613560565b9050919050565b600060208201905081810360008301526139e1816135a6565b9050919050565b60006020820190506139fd60008301846135c9565b92915050565b6000606082019050613a1860008301866135c9565b8181036020830152613a2a818561323a565b9050613a3960408301846135c9565b949350505050565b6000613a4b613a5c565b9050613a578282613d3c565b919050565b6000604051905090565b600067ffffffffffffffff821115613a8157613a80613e74565b5b613a8a82613ea3565b9050602081019050919050565b600067ffffffffffffffff821115613ab257613ab1613e74565b5b613abb82613ea3565b9050602081019050919050565b600081519050919050565b600081519050919050565b600082825260208201905092915050565b600082825260208201905092915050565b600081905092915050565b6000613b1682613c94565b9150613b2183613c94565b9250827fffffffffffffffffffffffffffffffffffffffffffffffffffffffffffffffff03821115613b5657613b55613de7565b5b828201905092915050565b6000613b6c82613c94565b9150613b7783613c94565b925082613b8757613b86613e16565b5b828204905092915050565b6000613b9d82613c94565b9150613ba883613c94565b9250817fffffffffffffffffffffffffffffffffffffffffffffffffffffffffffffffff0483118215151615613be157613be0613de7565b5b828202905092915050565b6000613bf782613c94565b9150613c0283613c94565b925082821015613c1557613c14613de7565b5b828203905092915050565b6000613c2b82613c74565b9050919050565b60008115159050919050565b6000819050919050565b60007fffffffff0000000000000000000000000000000000000000000000000000000082169050919050565b600073ffffffffffffffffffffffffffffffffffffffff82169050919050565b6000819050919050565b82818337600083830152505050565b60005b83811015613ccb578082015181840152602081019050613cb0565b83811115613cda576000848401525b50505050565b6000613ceb82613c94565b91506000821415613cff57613cfe613de7565b5b600182039050919050565b60006002820490506001821680613d2257607f821691505b60208210811415613d3657613d35613e45565b5b50919050565b613d4582613ea3565b810181811067ffffffffffffffff82111715613d6457613d63613e74565b5b80604052505050565b6000613d7882613c94565b91507fffffffffffffffffffffffffffffffffffffffffffffffffffffffffffffffff821415613dab57613daa613de7565b5b600182019050919050565b6000613dc182613c94565b9150613dcc83613c94565b925082613ddc57613ddb613e16565b5b828206905092915050565b7f4e487b7100000000000000000000000000000000000000000000000000000000600052601160045260246000fd5b7f4e487b7100000000000000000000000000000000000000000000000000000000600052601260045260246000fd5b7f4e487b7100000000000000000000000000000000000000000000000000000000600052602260045260246000fd5b7f4e487b7100000000000000000000000000000000000000000000000000000000600052604160045260246000fd5b6000601f19601f8301169050919050565b7f537472696e67733a20686578206c656e67746820696e73756666696369656e74600082015250565b7f455243373231456e756d657261626c653a206f776e657220696e646578206f7560008201527f74206f6620626f756e6473000000000000000000000000000000000000000000602082015250565b7f4552433732313a207472616e7366657220746f206e6f6e20455243373231526560008201527f63656976657220696d706c656d656e7465720000000000000000000000000000602082015250565b7f4552433732314964656e74696665723a204f6e6c79204d494e5445525f524f4c60008201527f45206861732074686973207065726d697373696f6e2e2020596f75722061636360208201527f6f756e7420646f6573206e6f742068617665204d494e5445525f524f4c450000604082015250565b7f4552433732313a207472616e736665722066726f6d20696e636f72726563742060008201527f6f776e6572000000000000000000000000000000000000000000000000000000602082015250565b7f4552433732313a20746f6b656e20616c7265616479206d696e74656400000000600082015250565b7f4552433732313a207472616e7366657220746f20746865207a65726f2061646460008201527f7265737300000000000000000000000000000000000000000000000000000000602082015250565b7f4552433732313a20617070726f766520746f2063616c6c657200000000000000600082015250565b7f4552433732313a2061646472657373207a65726f206973206e6f74206120766160008201527f6c6964206f776e65720000000000000000000000000000000000000000000000602082015250565b7f5468697320746f6b656e2063616e206e6f74206265206275726e6564206f722060008201527f6d696e74656420627920616e796f6e65206f74686572207468616e207468652060208201527f6d696e7465722e2020506c6561736520636f6e746163742053796e6368726f6e60408201527f7920696620796f75207769736820746f206275726e20796f7572204944000000606082015250565b7f45524337323155524953746f726167653a2055524920736574206f66206e6f6e60008201527f6578697374656e7420746f6b656e000000000000000000000000000000000000602082015250565b7f4552433732313a20617070726f76652063616c6c6572206973206e6f7420746f60008201527f6b656e206f776e6572206e6f7220617070726f76656420666f7220616c6c0000602082015250565b7f4552433732313a206d696e7420746f20746865207a65726f2061646472657373600082015250565b7f43616e206f6e6c7920686f6c64206f6e65206469676974616c4944207065722060008201527f77616c6c65742c20746869732077616c6c657420616c7265616479206861732060208201527f6f6e652100000000000000000000000000000000000000000000000000000000604082015250565b7f45524337323155524953746f726167653a2055524920717565727920666f722060008201527f6e6f6e6578697374656e7420746f6b656e000000000000000000000000000000602082015250565b7f4552433732313a20696e76616c696420746f6b656e2049440000000000000000600082015250565b7f4552433732313a20617070726f76616c20746f2063757272656e74206f776e6560008201527f7200000000000000000000000000000000000000000000000000000000000000602082015250565b7f4552433732314964656e74696665723a2074686973206469676974616c20494460008201527f20697320626f756e6420746f20796f75722077616c6c65742e2020436f6e746160208201527f637420746865206d696e746572202853796e6368726f6e792920696620796f7560408201527f207769736820746f206368616e676520746865206c6f636174696f6e206f662060608201527f796f757220494400000000000000000000000000000000000000000000000000608082015250565b7f455243373231456e756d657261626c653a20676c6f62616c20696e646578206f60008201527f7574206f6620626f756e64730000000000000000000000000000000000000000602082015250565b7f416363657373436f6e74726f6c3a206163636f756e7420000000000000000000600082015250565b7f4552433732313a2063616c6c6572206973206e6f7420746f6b656e206f776e6560008201527f72206e6f7220617070726f766564000000000000000000000000000000000000602082015250565b7f206973206d697373696e6720726f6c6520000000000000000000000000000000600082015250565b7f416363657373436f6e74726f6c3a2063616e206f6e6c792072656e6f756e636560008201527f20726f6c657320666f722073656c660000000000000000000000000000000000602082015250565b6145d681613c20565b81146145e157600080fd5b50565b6145ed81613c32565b81146145f857600080fd5b50565b61460481613c3e565b811461460f57600080fd5b50565b61461b81613c48565b811461462657600080fd5b50565b61463281613c94565b811461463d57600080fd5b5056fe257320686173206265656e20676976656e206120746f6b656e207769746820696420257320616e6420757269202573a2646970667358221220b61c333ebda64db224f669ffec32f46412770f1d5edbc8c3e2f7bad64e23ffca64736f6c63430008040033",
  "linkReferences": {},
  "deployedLinkReferences": {}
}