{
  "_format": "hh-sol-artifact-1",
  "contractName": "ERC721Identifier",
  "sourceName": "contracts/ERC721Identifier.sol",
  "abi": [
    {
      "inputs": [
        {
          "internalType": "string",
          "name": "name_",
          "type": "string"
        },
        {
          "internalType": "string",
          "name": "symbol_",
          "type": "string"
        },
        {
          "internalType": "string",
          "name": "baseURI_",
          "type": "string"
        }
      ],
      "stateMutability": "nonpayable",
      "type": "constructor"
    },
    {
      "anonymous": false,
      "inputs": [
        {
          "indexed": true,
          "internalType": "address",
          "name": "owner",
          "type": "address"
        },
        {
          "indexed": true,
          "internalType": "address",
          "name": "approved",
          "type": "address"
        },
        {
          "indexed": true,
          "internalType": "uint256",
          "name": "tokenId",
          "type": "uint256"
        }
      ],
      "name": "Approval",
      "type": "event"
    },
    {
      "anonymous": false,
      "inputs": [
        {
          "indexed": true,
          "internalType": "address",
          "name": "owner",
          "type": "address"
        },
        {
          "indexed": true,
          "internalType": "address",
          "name": "operator",
          "type": "address"
        },
        {
          "indexed": false,
          "internalType": "bool",
          "name": "approved",
          "type": "bool"
        }
      ],
      "name": "ApprovalForAll",
      "type": "event"
    },
    {
      "anonymous": false,
      "inputs": [
        {
          "indexed": true,
          "internalType": "address",
          "name": "from",
          "type": "address"
        },
        {
          "indexed": true,
          "internalType": "address",
          "name": "to",
          "type": "address"
        },
        {
          "indexed": false,
          "internalType": "uint256",
          "name": "tokenID",
          "type": "uint256"
        },
        {
          "indexed": false,
          "internalType": "string",
          "name": "tokenURI",
          "type": "string"
        },
        {
          "indexed": false,
          "internalType": "uint256",
          "name": "timestamp",
          "type": "uint256"
        }
      ],
      "name": "NewIdentifierMinted",
      "type": "event"
    },
    {
      "anonymous": false,
      "inputs": [
        {
          "indexed": true,
          "internalType": "bytes32",
          "name": "role",
          "type": "bytes32"
        },
        {
          "indexed": true,
          "internalType": "bytes32",
          "name": "previousAdminRole",
          "type": "bytes32"
        },
        {
          "indexed": true,
          "internalType": "bytes32",
          "name": "newAdminRole",
          "type": "bytes32"
        }
      ],
      "name": "RoleAdminChanged",
      "type": "event"
    },
    {
      "anonymous": false,
      "inputs": [
        {
          "indexed": true,
          "internalType": "bytes32",
          "name": "role",
          "type": "bytes32"
        },
        {
          "indexed": true,
          "internalType": "address",
          "name": "account",
          "type": "address"
        },
        {
          "indexed": true,
          "internalType": "address",
          "name": "sender",
          "type": "address"
        }
      ],
      "name": "RoleGranted",
      "type": "event"
    },
    {
      "anonymous": false,
      "inputs": [
        {
          "indexed": true,
          "internalType": "bytes32",
          "name": "role",
          "type": "bytes32"
        },
        {
          "indexed": true,
          "internalType": "address",
          "name": "account",
          "type": "address"
        },
        {
          "indexed": true,
          "internalType": "address",
          "name": "sender",
          "type": "address"
        }
      ],
      "name": "RoleRevoked",
      "type": "event"
    },
    {
      "anonymous": false,
      "inputs": [
        {
          "indexed": true,
          "internalType": "address",
          "name": "from",
          "type": "address"
        },
        {
          "indexed": true,
          "internalType": "address",
          "name": "to",
          "type": "address"
        },
        {
          "indexed": true,
          "internalType": "uint256",
          "name": "tokenId",
          "type": "uint256"
        }
      ],
      "name": "Transfer",
      "type": "event"
    },
    {
      "inputs": [],
      "name": "DEFAULT_ADMIN_ROLE",
      "outputs": [
        {
          "internalType": "bytes32",
          "name": "",
          "type": "bytes32"
        }
      ],
      "stateMutability": "view",
      "type": "function"
    },
    {
      "inputs": [],
      "name": "MINTER_ROLE",
      "outputs": [
        {
          "internalType": "bytes32",
          "name": "",
          "type": "bytes32"
        }
      ],
      "stateMutability": "view",
      "type": "function"
    },
    {
      "inputs": [
        {
          "internalType": "address",
          "name": "to",
          "type": "address"
        },
        {
          "internalType": "uint256",
          "name": "tokenId",
          "type": "uint256"
        }
      ],
      "name": "approve",
      "outputs": [],
      "stateMutability": "nonpayable",
      "type": "function"
    },
    {
      "inputs": [
        {
          "internalType": "address",
          "name": "owner",
          "type": "address"
        }
      ],
      "name": "balanceOf",
      "outputs": [
        {
          "internalType": "uint256",
          "name": "",
          "type": "uint256"
        }
      ],
      "stateMutability": "view",
      "type": "function"
    },
    {
      "inputs": [
        {
          "internalType": "uint256",
          "name": "tokenId",
          "type": "uint256"
        }
      ],
      "name": "getApproved",
      "outputs": [
        {
          "internalType": "address",
          "name": "",
          "type": "address"
        }
      ],
      "stateMutability": "view",
      "type": "function"
    },
    {
      "inputs": [
        {
          "internalType": "bytes32",
          "name": "role",
          "type": "bytes32"
        }
      ],
      "name": "getRoleAdmin",
      "outputs": [
        {
          "internalType": "bytes32",
          "name": "",
          "type": "bytes32"
        }
      ],
      "stateMutability": "view",
      "type": "function"
    },
    {
      "inputs": [
        {
          "internalType": "bytes32",
          "name": "role",
          "type": "bytes32"
        },
        {
          "internalType": "address",
          "name": "account",
          "type": "address"
        }
      ],
      "name": "grantRole",
      "outputs": [],
      "stateMutability": "nonpayable",
      "type": "function"
    },
    {
      "inputs": [
        {
          "internalType": "bytes32",
          "name": "role",
          "type": "bytes32"
        },
        {
          "internalType": "address",
          "name": "account",
          "type": "address"
        }
      ],
      "name": "hasRole",
      "outputs": [
        {
          "internalType": "bool",
          "name": "",
          "type": "bool"
        }
      ],
      "stateMutability": "view",
      "type": "function"
    },
    {
      "inputs": [
        {
          "internalType": "address",
          "name": "owner",
          "type": "address"
        },
        {
          "internalType": "address",
          "name": "operator",
          "type": "address"
        }
      ],
      "name": "isApprovedForAll",
      "outputs": [
        {
          "internalType": "bool",
          "name": "",
          "type": "bool"
        }
      ],
      "stateMutability": "view",
      "type": "function"
    },
    {
      "inputs": [
        {
          "internalType": "address",
          "name": "to",
          "type": "address"
        }
      ],
      "name": "mint",
      "outputs": [],
      "stateMutability": "nonpayable",
      "type": "function"
    },
    {
      "inputs": [],
      "name": "name",
      "outputs": [
        {
          "internalType": "string",
          "name": "",
          "type": "string"
        }
      ],
      "stateMutability": "view",
      "type": "function"
    },
    {
      "inputs": [
        {
          "internalType": "uint256",
          "name": "tokenId",
          "type": "uint256"
        }
      ],
      "name": "ownerOf",
      "outputs": [
        {
          "internalType": "address",
          "name": "",
          "type": "address"
        }
      ],
      "stateMutability": "view",
      "type": "function"
    },
    {
      "inputs": [
        {
          "internalType": "bytes32",
          "name": "role",
          "type": "bytes32"
        },
        {
          "internalType": "address",
          "name": "account",
          "type": "address"
        }
      ],
      "name": "renounceRole",
      "outputs": [],
      "stateMutability": "nonpayable",
      "type": "function"
    },
    {
      "inputs": [
        {
          "internalType": "bytes32",
          "name": "role",
          "type": "bytes32"
        },
        {
          "internalType": "address",
          "name": "account",
          "type": "address"
        }
      ],
      "name": "revokeRole",
      "outputs": [],
      "stateMutability": "nonpayable",
      "type": "function"
    },
    {
      "inputs": [
        {
          "internalType": "address",
          "name": "from",
          "type": "address"
        },
        {
          "internalType": "address",
          "name": "to",
          "type": "address"
        },
        {
          "internalType": "uint256",
          "name": "tokenId",
          "type": "uint256"
        }
      ],
      "name": "safeTransferFrom",
      "outputs": [],
      "stateMutability": "nonpayable",
      "type": "function"
    },
    {
      "inputs": [
        {
          "internalType": "address",
          "name": "from",
          "type": "address"
        },
        {
          "internalType": "address",
          "name": "to",
          "type": "address"
        },
        {
          "internalType": "uint256",
          "name": "tokenId",
          "type": "uint256"
        },
        {
          "internalType": "bytes",
          "name": "_data",
          "type": "bytes"
        }
      ],
      "name": "safeTransferFrom",
      "outputs": [],
      "stateMutability": "nonpayable",
      "type": "function"
    },
    {
      "inputs": [
        {
          "internalType": "address",
          "name": "operator",
          "type": "address"
        },
        {
          "internalType": "bool",
          "name": "approved",
          "type": "bool"
        }
      ],
      "name": "setApprovalForAll",
      "outputs": [],
      "stateMutability": "nonpayable",
      "type": "function"
    },
    {
      "inputs": [
        {
          "internalType": "bytes4",
          "name": "interfaceId",
          "type": "bytes4"
        }
      ],
      "name": "supportsInterface",
      "outputs": [
        {
          "internalType": "bool",
          "name": "",
          "type": "bool"
        }
      ],
      "stateMutability": "view",
      "type": "function"
    },
    {
      "inputs": [],
      "name": "symbol",
      "outputs": [
        {
          "internalType": "string",
          "name": "",
          "type": "string"
        }
      ],
      "stateMutability": "view",
      "type": "function"
    },
    {
      "inputs": [
        {
          "internalType": "uint256",
          "name": "index",
          "type": "uint256"
        }
      ],
      "name": "tokenByIndex",
      "outputs": [
        {
          "internalType": "uint256",
          "name": "",
          "type": "uint256"
        }
      ],
      "stateMutability": "view",
      "type": "function"
    },
    {
      "inputs": [
        {
          "internalType": "address",
          "name": "owner",
          "type": "address"
        },
        {
          "internalType": "uint256",
          "name": "index",
          "type": "uint256"
        }
      ],
      "name": "tokenOfOwnerByIndex",
      "outputs": [
        {
          "internalType": "uint256",
          "name": "",
          "type": "uint256"
        }
      ],
      "stateMutability": "view",
      "type": "function"
    },
    {
      "inputs": [
        {
          "internalType": "uint256",
          "name": "tokenId",
          "type": "uint256"
        }
      ],
      "name": "tokenURI",
      "outputs": [
        {
          "internalType": "string",
          "name": "",
          "type": "string"
        }
      ],
      "stateMutability": "view",
      "type": "function"
    },
    {
      "inputs": [],
      "name": "totalSupply",
      "outputs": [
        {
          "internalType": "uint256",
          "name": "",
          "type": "uint256"
        }
      ],
      "stateMutability": "view",
      "type": "function"
    },
    {
      "inputs": [
        {
          "internalType": "address",
          "name": "from",
          "type": "address"
        },
        {
          "internalType": "address",
          "name": "to",
          "type": "address"
        },
        {
          "internalType": "uint256",
          "name": "tokenId",
          "type": "uint256"
        }
      ],
      "name": "transferFrom",
      "outputs": [],
      "stateMutability": "nonpayable",
      "type": "function"
    }
  ],
  "bytecode": "0x608060405260405180602001604052806000815250600c90805190602001906200002b92919062000262565b503480156200003957600080fd5b5060405162004cbd38038062004cbd83398181016040528101906200005f919062000384565b828281600090805190602001906200007992919062000262565b5080600190805190602001906200009292919062000262565b505050620000c77f9f2df0fed2c77648de5860a4cc508cd0818c85b8b8a1ab4ceeef8d981c8956a633620000e160201b60201c565b620000d881620001d360201b60201c565b50505062000595565b620000f38282620001ef60201b60201c565b620001cf576001600a600084815260200190815260200160002060000160008373ffffffffffffffffffffffffffffffffffffffff1673ffffffffffffffffffffffffffffffffffffffff16815260200190815260200160002060006101000a81548160ff021916908315150217905550620001746200025a60201b60201c565b73ffffffffffffffffffffffffffffffffffffffff168173ffffffffffffffffffffffffffffffffffffffff16837f2f8788117e7eff1d82e926ec794901d17c78024a50270940304540a733656f0d60405160405180910390a45b5050565b80600c9080519060200190620001eb92919062000262565b5050565b6000600a600084815260200190815260200160002060000160008373ffffffffffffffffffffffffffffffffffffffff1673ffffffffffffffffffffffffffffffffffffffff16815260200190815260200160002060009054906101000a900460ff16905092915050565b600033905090565b8280546200027090620004ba565b90600052602060002090601f016020900481019282620002945760008555620002e0565b82601f10620002af57805160ff1916838001178555620002e0565b82800160010185558215620002e0579182015b82811115620002df578251825591602001919060010190620002c2565b5b509050620002ef9190620002f3565b5090565b5b808211156200030e576000816000905550600101620002f4565b5090565b60006200032962000323846200044e565b62000425565b9050828152602081018484840111156200034257600080fd5b6200034f84828562000484565b509392505050565b600082601f8301126200036957600080fd5b81516200037b84826020860162000312565b91505092915050565b6000806000606084860312156200039a57600080fd5b600084015167ffffffffffffffff811115620003b557600080fd5b620003c38682870162000357565b935050602084015167ffffffffffffffff811115620003e157600080fd5b620003ef8682870162000357565b925050604084015167ffffffffffffffff8111156200040d57600080fd5b6200041b8682870162000357565b9150509250925092565b60006200043162000444565b90506200043f8282620004f0565b919050565b6000604051905090565b600067ffffffffffffffff8211156200046c576200046b62000555565b5b620004778262000584565b9050602081019050919050565b60005b83811015620004a457808201518184015260208101905062000487565b83811115620004b4576000848401525b50505050565b60006002820490506001821680620004d357607f821691505b60208210811415620004ea57620004e962000526565b5b50919050565b620004fb8262000584565b810181811067ffffffffffffffff821117156200051d576200051c62000555565b5b80604052505050565b7f4e487b7100000000000000000000000000000000000000000000000000000000600052602260045260246000fd5b7f4e487b7100000000000000000000000000000000000000000000000000000000600052604160045260246000fd5b6000601f19601f8301169050919050565b61471880620005a56000396000f3fe608060405234801561001057600080fd5b50600436106101585760003560e01c80636352211e116100c3578063a22cb4651161007c578063a22cb465146103fd578063b88d4fde14610419578063c87b56dd14610435578063d539139314610465578063d547741f14610483578063e985e9c51461049f57610158565b80636352211e146103155780636a6278421461034557806370a082311461036157806391d148541461039157806395d89b41146103c1578063a217fddf146103df57610158565b8063248a9ca311610115578063248a9ca3146102315780632f2ff15d146102615780632f745c591461027d57806336568abe146102ad57806342842e0e146102c95780634f6ccce7146102e557610158565b806301ffc9a71461015d57806306fdde031461018d578063081812fc146101ab578063095ea7b3146101db57806318160ddd146101f757806323b872dd14610215575b600080fd5b610177600480360381019061017291906130ff565b6104cf565b6040516101849190613689565b60405180910390f35b610195610619565b6040516101a291906136bf565b60405180910390f35b6101c560048036038101906101c09190613151565b6106ab565b6040516101d29190613622565b60405180910390f35b6101f560048036038101906101f0919061305e565b610730565b005b6101ff610848565b60405161020c9190613a14565b60405180910390f35b61022f600480360381019061022a9190612f58565b610855565b005b61024b6004803603810190610246919061309a565b6108b5565b60405161025891906136a4565b60405180910390f35b61027b600480360381019061027691906130c3565b6108d5565b005b6102976004803603810190610292919061305e565b6108f6565b6040516102a49190613a14565b60405180910390f35b6102c760048036038101906102c291906130c3565b61099b565b005b6102e360048036038101906102de9190612f58565b610a1e565b005b6102ff60048036038101906102fa9190613151565b610a3e565b60405161030c9190613a14565b60405180910390f35b61032f600480360381019061032a9190613151565b610ad5565b60405161033c9190613622565b60405180910390f35b61035f600480360381019061035a9190612ef3565b610b87565b005b61037b60048036038101906103769190612ef3565b610cdd565b6040516103889190613a14565b60405180910390f35b6103ab60048036038101906103a691906130c3565b610d95565b6040516103b89190613689565b60405180910390f35b6103c9610e00565b6040516103d691906136bf565b60405180910390f35b6103e7610e92565b6040516103f491906136a4565b60405180910390f35b61041760048036038101906104129190613022565b610e99565b005b610433600480360381019061042e9190612fa7565b610eaf565b005b61044f600480360381019061044a9190613151565b610f11565b60405161045c91906136bf565b60405180910390f35b61046d611063565b60405161047a91906136a4565b60405180910390f35b61049d600480360381019061049891906130c3565b611087565b005b6104b960048036038101906104b49190612f1c565b6110a8565b6040516104c69190613689565b60405180910390f35b60007f80ac58cd000000000000000000000000000000000000000000000000000000007bffffffffffffffffffffffffffffffffffffffffffffffffffffffff1916827bffffffffffffffffffffffffffffffffffffffffffffffffffffffff1916148061059a57507f5b5e139f000000000000000000000000000000000000000000000000000000007bffffffffffffffffffffffffffffffffffffffffffffffffffffffff1916827bffffffffffffffffffffffffffffffffffffffffffffffffffffffff1916145b8061060257507f780e9d63000000000000000000000000000000000000000000000000000000007bffffffffffffffffffffffffffffffffffffffffffffffffffffffff1916827bffffffffffffffffffffffffffffffffffffffffffffffffffffffff1916145b8061061257506106118261113c565b5b9050919050565b60606000805461062890613d05565b80601f016020809104026020016040519081016040528092919081815260200182805461065490613d05565b80156106a15780601f10610676576101008083540402835291602001916106a1565b820191906000526020600020905b81548152906001019060200180831161068457829003601f168201915b5050505050905090565b60006106b6826111b6565b6106f5576040517f08c379a00000000000000000000000000000000000000000000000000000000081526004016106ec90613934565b60405180910390fd5b6004600083815260200190815260200160002060009054906101000a900473ffffffffffffffffffffffffffffffffffffffff169050919050565b600061073b82610ad5565b90508073ffffffffffffffffffffffffffffffffffffffff168373ffffffffffffffffffffffffffffffffffffffff1614156107ac576040517f08c379a00000000000000000000000000000000000000000000000000000000081526004016107a390613974565b60405180910390fd5b8073ffffffffffffffffffffffffffffffffffffffff166107cb611222565b73ffffffffffffffffffffffffffffffffffffffff1614806107fa57506107f9816107f4611222565b6110a8565b5b610839576040517f08c379a000000000000000000000000000000000000000000000000000000000815260040161083090613854565b60405180910390fd5b610843838361122a565b505050565b6000600880549050905090565b610866610860611222565b826112e3565b6108a5576040517f08c379a000000000000000000000000000000000000000000000000000000000815260040161089c90613994565b60405180910390fd5b6108b08383836113c1565b505050565b6000600a6000838152602001908152602001600020600101549050919050565b6108de826108b5565b6108e781611628565b6108f1838361163c565b505050565b600061090183610cdd565b8210610942576040517f08c379a000000000000000000000000000000000000000000000000000000000815260040161093990613754565b60405180910390fd5b600660008473ffffffffffffffffffffffffffffffffffffffff1673ffffffffffffffffffffffffffffffffffffffff168152602001908152602001600020600083815260200190815260200160002054905092915050565b6109a3611222565b73ffffffffffffffffffffffffffffffffffffffff168173ffffffffffffffffffffffffffffffffffffffff1614610a10576040517f08c379a0000000000000000000000000000000000000000000000000000000008152600401610a07906139f4565b60405180910390fd5b610a1a828261171d565b5050565b610a3983838360405180602001604052806000815250610eaf565b505050565b6000610a48610848565b8210610a89576040517f08c379a0000000000000000000000000000000000000000000000000000000008152600401610a80906139d4565b60405180910390fd5b60088281548110610ac3577f4e487b7100000000000000000000000000000000000000000000000000000000600052603260045260246000fd5b90600052602060002001549050919050565b6000806002600084815260200190815260200160002060009054906101000a900473ffffffffffffffffffffffffffffffffffffffff169050600073ffffffffffffffffffffffffffffffffffffffff168173ffffffffffffffffffffffffffffffffffffffff161415610b7e576040517f08c379a0000000000000000000000000000000000000000000000000000000008152600401610b7590613894565b60405180910390fd5b80915050919050565b610bb17f9f2df0fed2c77648de5860a4cc508cd0818c85b8b8a1ab4ceeef8d981c8956a633610d95565b610bf0576040517f08c379a0000000000000000000000000000000000000000000000000000000008152600401610be790613794565b60405180910390fd5b610bfa600b6117ff565b6000610c06600b611815565b9050610c128282611823565b610c3c81610c378473ffffffffffffffffffffffffffffffffffffffff1660146119fd565b611cf7565b610c686040518060600160405280602f81526020016146b4602f91398383610c6385610f11565b611d6b565b8173ffffffffffffffffffffffffffffffffffffffff163373ffffffffffffffffffffffffffffffffffffffff167f77cc8f51d28eb35d860cdc87dcd3e72339bc544e5372744a88683d4fe5401de583610cc185610f11565b42604051610cd193929190613a2f565b60405180910390a35050565b60008073ffffffffffffffffffffffffffffffffffffffff168273ffffffffffffffffffffffffffffffffffffffff161415610d4e576040517f08c379a0000000000000000000000000000000000000000000000000000000008152600401610d4590613874565b60405180910390fd5b600360008373ffffffffffffffffffffffffffffffffffffffff1673ffffffffffffffffffffffffffffffffffffffff168152602001908152602001600020549050919050565b6000600a600084815260200190815260200160002060000160008373ffffffffffffffffffffffffffffffffffffffff1673ffffffffffffffffffffffffffffffffffffffff16815260200190815260200160002060009054906101000a900460ff16905092915050565b606060018054610e0f90613d05565b80601f0160208091040260200160405190810160405280929190818152602001828054610e3b90613d05565b8015610e885780601f10610e5d57610100808354040283529160200191610e88565b820191906000526020600020905b815481529060010190602001808311610e6b57829003601f168201915b5050505050905090565b6000801b81565b610eab610ea4611222565b8383611e0d565b5050565b610ec0610eba611222565b836112e3565b610eff576040517f08c379a0000000000000000000000000000000000000000000000000000000008152600401610ef690613994565b60405180910390fd5b610f0b84848484611f7a565b50505050565b6060610f1c826111b6565b610f5b576040517f08c379a0000000000000000000000000000000000000000000000000000000008152600401610f5290613914565b60405180910390fd5b6000600d60008481526020019081526020016000208054610f7b90613d05565b80601f0160208091040260200160405190810160405280929190818152602001828054610fa790613d05565b8015610ff45780601f10610fc957610100808354040283529160200191610ff4565b820191906000526020600020905b815481529060010190602001808311610fd757829003601f168201915b505050505090506000611005611fd6565b905060008151141561101b57819250505061105e565b6000825111156110505780826040516020016110389291906135c4565b6040516020818303038152906040529250505061105e565b61105984612068565b925050505b919050565b7f9f2df0fed2c77648de5860a4cc508cd0818c85b8b8a1ab4ceeef8d981c8956a681565b611090826108b5565b61109981611628565b6110a3838361171d565b505050565b6000600560008473ffffffffffffffffffffffffffffffffffffffff1673ffffffffffffffffffffffffffffffffffffffff16815260200190815260200160002060008373ffffffffffffffffffffffffffffffffffffffff1673ffffffffffffffffffffffffffffffffffffffff16815260200190815260200160002060009054906101000a900460ff16905092915050565b60007f7965db0b000000000000000000000000000000000000000000000000000000007bffffffffffffffffffffffffffffffffffffffffffffffffffffffff1916827bffffffffffffffffffffffffffffffffffffffffffffffffffffffff191614806111af57506111ae8261210f565b5b9050919050565b60008073ffffffffffffffffffffffffffffffffffffffff166002600084815260200190815260200160002060009054906101000a900473ffffffffffffffffffffffffffffffffffffffff1673ffffffffffffffffffffffffffffffffffffffff1614159050919050565b600033905090565b816004600083815260200190815260200160002060006101000a81548173ffffffffffffffffffffffffffffffffffffffff021916908373ffffffffffffffffffffffffffffffffffffffff160217905550808273ffffffffffffffffffffffffffffffffffffffff1661129d83610ad5565b73ffffffffffffffffffffffffffffffffffffffff167f8c5be1e5ebec7d5bd14f71427d1e84f3dd0314c0f7b2291e5b200ac8c7c3b92560405160405180910390a45050565b60006112ee826111b6565b61132d576040517f08c379a000000000000000000000000000000000000000000000000000000000815260040161132490613834565b60405180910390fd5b600061133883610ad5565b90508073ffffffffffffffffffffffffffffffffffffffff168473ffffffffffffffffffffffffffffffffffffffff16148061137a575061137981856110a8565b5b806113b857508373ffffffffffffffffffffffffffffffffffffffff166113a0846106ab565b73ffffffffffffffffffffffffffffffffffffffff16145b91505092915050565b8273ffffffffffffffffffffffffffffffffffffffff166113e182610ad5565b73ffffffffffffffffffffffffffffffffffffffff1614611437576040517f08c379a000000000000000000000000000000000000000000000000000000000815260040161142e906137b4565b60405180910390fd5b600073ffffffffffffffffffffffffffffffffffffffff168273ffffffffffffffffffffffffffffffffffffffff1614156114a7576040517f08c379a000000000000000000000000000000000000000000000000000000000815260040161149e906137f4565b60405180910390fd5b6114b2838383612189565b6114bd60008261122a565b6001600360008573ffffffffffffffffffffffffffffffffffffffff1673ffffffffffffffffffffffffffffffffffffffff168152602001908152602001600020600082825461150d9190613be7565b925050819055506001600360008473ffffffffffffffffffffffffffffffffffffffff1673ffffffffffffffffffffffffffffffffffffffff16815260200190815260200160002060008282546115649190613b06565b92505081905550816002600083815260200190815260200160002060006101000a81548173ffffffffffffffffffffffffffffffffffffffff021916908373ffffffffffffffffffffffffffffffffffffffff160217905550808273ffffffffffffffffffffffffffffffffffffffff168473ffffffffffffffffffffffffffffffffffffffff167fddf252ad1be2c89b69c2b068fc378daa952ba7f163c4a11628f55a4df523b3ef60405160405180910390a46116238383836122c2565b505050565b61163981611634611222565b6122c7565b50565b6116468282610d95565b611719576001600a600084815260200190815260200160002060000160008373ffffffffffffffffffffffffffffffffffffffff1673ffffffffffffffffffffffffffffffffffffffff16815260200190815260200160002060006101000a81548160ff0219169083151502179055506116be611222565b73ffffffffffffffffffffffffffffffffffffffff168173ffffffffffffffffffffffffffffffffffffffff16837f2f8788117e7eff1d82e926ec794901d17c78024a50270940304540a733656f0d60405160405180910390a45b5050565b6117278282610d95565b156117fb576000600a600084815260200190815260200160002060000160008373ffffffffffffffffffffffffffffffffffffffff1673ffffffffffffffffffffffffffffffffffffffff16815260200190815260200160002060006101000a81548160ff0219169083151502179055506117a0611222565b73ffffffffffffffffffffffffffffffffffffffff168173ffffffffffffffffffffffffffffffffffffffff16837ff6391f5c32d9c69d2a47ea670b442974b53935d1edc7fd64eb21e047a839171b60405160405180910390a45b5050565b6001816000016000828254019250508190555050565b600081600001549050919050565b600073ffffffffffffffffffffffffffffffffffffffff168273ffffffffffffffffffffffffffffffffffffffff161415611893576040517f08c379a000000000000000000000000000000000000000000000000000000000815260040161188a906138d4565b60405180910390fd5b61189c816111b6565b156118dc576040517f08c379a00000000000000000000000000000000000000000000000000000000081526004016118d3906137d4565b60405180910390fd5b6118e860008383612189565b6001600360008473ffffffffffffffffffffffffffffffffffffffff1673ffffffffffffffffffffffffffffffffffffffff16815260200190815260200160002060008282546119389190613b06565b92505081905550816002600083815260200190815260200160002060006101000a81548173ffffffffffffffffffffffffffffffffffffffff021916908373ffffffffffffffffffffffffffffffffffffffff160217905550808273ffffffffffffffffffffffffffffffffffffffff16600073ffffffffffffffffffffffffffffffffffffffff167fddf252ad1be2c89b69c2b068fc378daa952ba7f163c4a11628f55a4df523b3ef60405160405180910390a46119f9600083836122c2565b5050565b606060006002836002611a109190613b8d565b611a1a9190613b06565b67ffffffffffffffff811115611a59577f4e487b7100000000000000000000000000000000000000000000000000000000600052604160045260246000fd5b6040519080825280601f01601f191660200182016040528015611a8b5781602001600182028036833780820191505090505b5090507f300000000000000000000000000000000000000000000000000000000000000081600081518110611ae9577f4e487b7100000000000000000000000000000000000000000000000000000000600052603260045260246000fd5b60200101907effffffffffffffffffffffffffffffffffffffffffffffffffffffffffffff1916908160001a9053507f780000000000000000000000000000000000000000000000000000000000000081600181518110611b73577f4e487b7100000000000000000000000000000000000000000000000000000000600052603260045260246000fd5b60200101907effffffffffffffffffffffffffffffffffffffffffffffffffffffffffffff1916908160001a90535060006001846002611bb39190613b8d565b611bbd9190613b06565b90505b6001811115611ca9577f3031323334353637383961626364656600000000000000000000000000000000600f861660108110611c25577f4e487b7100000000000000000000000000000000000000000000000000000000600052603260045260246000fd5b1a60f81b828281518110611c62577f4e487b7100000000000000000000000000000000000000000000000000000000600052603260045260246000fd5b60200101907effffffffffffffffffffffffffffffffffffffffffffffffffffffffffffff1916908160001a905350600485901c945080611ca290613cdb565b9050611bc0565b5060008414611ced576040517f08c379a0000000000000000000000000000000000000000000000000000000008152600401611ce490613734565b60405180910390fd5b8091505092915050565b611d00826111b6565b611d3f576040517f08c379a0000000000000000000000000000000000000000000000000000000008152600401611d36906138b4565b60405180910390fd5b80600d60008481526020019081526020016000209080519060200190611d66929190612d6a565b505050565b611e0784848484604051602401611d8594939291906136e1565b6040516020818303038152906040527f4c55f234000000000000000000000000000000000000000000000000000000007bffffffffffffffffffffffffffffffffffffffffffffffffffffffff19166020820180517bffffffffffffffffffffffffffffffffffffffffffffffffffffffff8381831617835250505050612364565b50505050565b8173ffffffffffffffffffffffffffffffffffffffff168373ffffffffffffffffffffffffffffffffffffffff161415611e7c576040517f08c379a0000000000000000000000000000000000000000000000000000000008152600401611e7390613814565b60405180910390fd5b80600560008573ffffffffffffffffffffffffffffffffffffffff1673ffffffffffffffffffffffffffffffffffffffff16815260200190815260200160002060008473ffffffffffffffffffffffffffffffffffffffff1673ffffffffffffffffffffffffffffffffffffffff16815260200190815260200160002060006101000a81548160ff0219169083151502179055508173ffffffffffffffffffffffffffffffffffffffff168373ffffffffffffffffffffffffffffffffffffffff167f17307eab39ab6107e8899845ad3d59bd9653f200f220920489ca2b5937696c3183604051611f6d9190613689565b60405180910390a3505050565b611f858484846113c1565b611f918484848461238d565b611fd0576040517f08c379a0000000000000000000000000000000000000000000000000000000008152600401611fc790613774565b60405180910390fd5b50505050565b6060600c8054611fe590613d05565b80601f016020809104026020016040519081016040528092919081815260200182805461201190613d05565b801561205e5780601f106120335761010080835404028352916020019161205e565b820191906000526020600020905b81548152906001019060200180831161204157829003601f168201915b5050505050905090565b6060612073826111b6565b6120b2576040517f08c379a00000000000000000000000000000000000000000000000000000000081526004016120a990613954565b60405180910390fd5b60006120bc611fd6565b905060008151116120dc5760405180602001604052806000815250612107565b806120e684612524565b6040516020016120f79291906135c4565b6040516020818303038152906040525b915050919050565b60007f780e9d63000000000000000000000000000000000000000000000000000000007bffffffffffffffffffffffffffffffffffffffffffffffffffffffff1916827bffffffffffffffffffffffffffffffffffffffffffffffffffffffff191614806121825750612181826126d1565b5b9050919050565b6121c76040518060400160405280601b81526020017f436865636b696e6720696620686173206d696e74657220726f6c6500000000008152506127b3565b6121f17f9f2df0fed2c77648de5860a4cc508cd0818c85b8b8a1ab4ceeef8d981c8956a633610d95565b612230576040517f08c379a0000000000000000000000000000000000000000000000000000000008152600401612227906139b4565b60405180910390fd5b600061223b83610cdd565b14806122735750600073ffffffffffffffffffffffffffffffffffffffff168273ffffffffffffffffffffffffffffffffffffffff16145b6122b2576040517f08c379a00000000000000000000000000000000000000000000000000000000081526004016122a9906138f4565b60405180910390fd5b6122bd83838361284c565b505050565b505050565b6122d18282610d95565b612360576122f68173ffffffffffffffffffffffffffffffffffffffff1660146119fd565b6123048360001c60206119fd565b6040516020016123159291906135e8565b6040516020818303038152906040526040517f08c379a000000000000000000000000000000000000000000000000000000000815260040161235791906136bf565b60405180910390fd5b5050565b60008151905060006a636f6e736f6c652e6c6f679050602083016000808483855afa5050505050565b60006123ae8473ffffffffffffffffffffffffffffffffffffffff16612960565b15612517578373ffffffffffffffffffffffffffffffffffffffff1663150b7a026123d7611222565b8786866040518563ffffffff1660e01b81526004016123f9949392919061363d565b602060405180830381600087803b15801561241357600080fd5b505af192505050801561244457506040513d601f19601f820116820180604052508101906124419190613128565b60015b6124c7573d8060008114612474576040519150601f19603f3d011682016040523d82523d6000602084013e612479565b606091505b506000815114156124bf576040517f08c379a00000000000000000000000000000000000000000000000000000000081526004016124b690613774565b60405180910390fd5b805181602001fd5b63150b7a0260e01b7bffffffffffffffffffffffffffffffffffffffffffffffffffffffff1916817bffffffffffffffffffffffffffffffffffffffffffffffffffffffff19161491505061251c565b600190505b949350505050565b6060600082141561256c576040518060400160405280600181526020017f300000000000000000000000000000000000000000000000000000000000000081525090506126cc565b600082905060005b6000821461259e57808061258790613d68565b915050600a826125979190613b5c565b9150612574565b60008167ffffffffffffffff8111156125e0577f4e487b7100000000000000000000000000000000000000000000000000000000600052604160045260246000fd5b6040519080825280601f01601f1916602001820160405280156126125781602001600182028036833780820191505090505b5090505b600085146126c55760018261262b9190613be7565b9150600a8561263a9190613db1565b60306126469190613b06565b60f81b818381518110612682577f4e487b7100000000000000000000000000000000000000000000000000000000600052603260045260246000fd5b60200101907effffffffffffffffffffffffffffffffffffffffffffffffffffffffffffff1916908160001a905350600a856126be9190613b5c565b9450612616565b8093505050505b919050565b60007f80ac58cd000000000000000000000000000000000000000000000000000000007bffffffffffffffffffffffffffffffffffffffffffffffffffffffff1916827bffffffffffffffffffffffffffffffffffffffffffffffffffffffff1916148061279c57507f5b5e139f000000000000000000000000000000000000000000000000000000007bffffffffffffffffffffffffffffffffffffffffffffffffffffffff1916827bffffffffffffffffffffffffffffffffffffffffffffffffffffffff1916145b806127ac57506127ab82612983565b5b9050919050565b612849816040516024016127c791906136bf565b6040516020818303038152906040527f41304fac000000000000000000000000000000000000000000000000000000007bffffffffffffffffffffffffffffffffffffffffffffffffffffffff19166020820180517bffffffffffffffffffffffffffffffffffffffffffffffffffffffff8381831617835250505050612364565b50565b6128578383836129ed565b600073ffffffffffffffffffffffffffffffffffffffff168373ffffffffffffffffffffffffffffffffffffffff16141561289a57612895816129f2565b6128d9565b8173ffffffffffffffffffffffffffffffffffffffff168373ffffffffffffffffffffffffffffffffffffffff16146128d8576128d78382612a3b565b5b5b600073ffffffffffffffffffffffffffffffffffffffff168273ffffffffffffffffffffffffffffffffffffffff16141561291c5761291781612ba8565b61295b565b8273ffffffffffffffffffffffffffffffffffffffff168273ffffffffffffffffffffffffffffffffffffffff161461295a576129598282612ceb565b5b5b505050565b6000808273ffffffffffffffffffffffffffffffffffffffff163b119050919050565b60007f01ffc9a7000000000000000000000000000000000000000000000000000000007bffffffffffffffffffffffffffffffffffffffffffffffffffffffff1916827bffffffffffffffffffffffffffffffffffffffffffffffffffffffff1916149050919050565b505050565b6008805490506009600083815260200190815260200160002081905550600881908060018154018082558091505060019003906000526020600020016000909190919091505550565b60006001612a4884610cdd565b612a529190613be7565b9050600060076000848152602001908152602001600020549050818114612b37576000600660008673ffffffffffffffffffffffffffffffffffffffff1673ffffffffffffffffffffffffffffffffffffffff168152602001908152602001600020600084815260200190815260200160002054905080600660008773ffffffffffffffffffffffffffffffffffffffff1673ffffffffffffffffffffffffffffffffffffffff168152602001908152602001600020600084815260200190815260200160002081905550816007600083815260200190815260200160002081905550505b6007600084815260200190815260200160002060009055600660008573ffffffffffffffffffffffffffffffffffffffff1673ffffffffffffffffffffffffffffffffffffffff16815260200190815260200160002060008381526020019081526020016000206000905550505050565b60006001600880549050612bbc9190613be7565b9050600060096000848152602001908152602001600020549050600060088381548110612c12577f4e487b7100000000000000000000000000000000000000000000000000000000600052603260045260246000fd5b906000526020600020015490508060088381548110612c5a577f4e487b7100000000000000000000000000000000000000000000000000000000600052603260045260246000fd5b906000526020600020018190555081600960008381526020019081526020016000208190555060096000858152602001908152602001600020600090556008805480612ccf577f4e487b7100000000000000000000000000000000000000000000000000000000600052603160045260246000fd5b6001900381819060005260206000200160009055905550505050565b6000612cf683610cdd565b905081600660008573ffffffffffffffffffffffffffffffffffffffff1673ffffffffffffffffffffffffffffffffffffffff168152602001908152602001600020600083815260200190815260200160002081905550806007600084815260200190815260200160002081905550505050565b828054612d7690613d05565b90600052602060002090601f016020900481019282612d985760008555612ddf565b82601f10612db157805160ff1916838001178555612ddf565b82800160010185558215612ddf579182015b82811115612dde578251825591602001919060010190612dc3565b5b509050612dec9190612df0565b5090565b5b80821115612e09576000816000905550600101612df1565b5090565b6000612e20612e1b84613a92565b613a6d565b905082815260208101848484011115612e3857600080fd5b612e43848285613c99565b509392505050565b600081359050612e5a81614640565b92915050565b600081359050612e6f81614657565b92915050565b600081359050612e848161466e565b92915050565b600081359050612e9981614685565b92915050565b600081519050612eae81614685565b92915050565b600082601f830112612ec557600080fd5b8135612ed5848260208601612e0d565b91505092915050565b600081359050612eed8161469c565b92915050565b600060208284031215612f0557600080fd5b6000612f1384828501612e4b565b91505092915050565b60008060408385031215612f2f57600080fd5b6000612f3d85828601612e4b565b9250506020612f4e85828601612e4b565b9150509250929050565b600080600060608486031215612f6d57600080fd5b6000612f7b86828701612e4b565b9350506020612f8c86828701612e4b565b9250506040612f9d86828701612ede565b9150509250925092565b60008060008060808587031215612fbd57600080fd5b6000612fcb87828801612e4b565b9450506020612fdc87828801612e4b565b9350506040612fed87828801612ede565b925050606085013567ffffffffffffffff81111561300a57600080fd5b61301687828801612eb4565b91505092959194509250565b6000806040838503121561303557600080fd5b600061304385828601612e4b565b925050602061305485828601612e60565b9150509250929050565b6000806040838503121561307157600080fd5b600061307f85828601612e4b565b925050602061309085828601612ede565b9150509250929050565b6000602082840312156130ac57600080fd5b60006130ba84828501612e75565b91505092915050565b600080604083850312156130d657600080fd5b60006130e485828601612e75565b92505060206130f585828601612e4b565b9150509250929050565b60006020828403121561311157600080fd5b600061311f84828501612e8a565b91505092915050565b60006020828403121561313a57600080fd5b600061314884828501612e9f565b91505092915050565b60006020828403121561316357600080fd5b600061317184828501612ede565b91505092915050565b61318381613c1b565b82525050565b61319281613c2d565b82525050565b6131a181613c39565b82525050565b60006131b282613ac3565b6131bc8185613ad9565b93506131cc818560208601613ca8565b6131d581613e9e565b840191505092915050565b60006131eb82613ace565b6131f58185613aea565b9350613205818560208601613ca8565b61320e81613e9e565b840191505092915050565b600061322482613ace565b61322e8185613afb565b935061323e818560208601613ca8565b80840191505092915050565b6000613257602083613aea565b915061326282613eaf565b602082019050919050565b600061327a602b83613aea565b915061328582613ed8565b604082019050919050565b600061329d603283613aea565b91506132a882613f27565b604082019050919050565b60006132c0605e83613aea565b91506132cb82613f76565b606082019050919050565b60006132e3602583613aea565b91506132ee82613feb565b604082019050919050565b6000613306601c83613aea565b91506133118261403a565b602082019050919050565b6000613329602483613aea565b915061333482614063565b604082019050919050565b600061334c601983613aea565b9150613357826140b2565b602082019050919050565b600061336f602c83613aea565b915061337a826140db565b604082019050919050565b6000613392603883613aea565b915061339d8261412a565b604082019050919050565b60006133b5602a83613aea565b91506133c082614179565b604082019050919050565b60006133d8602983613aea565b91506133e3826141c8565b604082019050919050565b60006133fb602e83613aea565b915061340682614217565b604082019050919050565b600061341e602083613aea565b915061342982614266565b602082019050919050565b6000613441604483613aea565b915061344c8261428f565b606082019050919050565b6000613464603183613aea565b915061346f82614304565b604082019050919050565b6000613487602c83613aea565b915061349282614353565b604082019050919050565b60006134aa602f83613aea565b91506134b5826143a2565b604082019050919050565b60006134cd602183613aea565b91506134d8826143f1565b604082019050919050565b60006134f0603183613aea565b91506134fb82614440565b604082019050919050565b6000613513608783613aea565b915061351e8261448f565b60a082019050919050565b6000613536602c83613aea565b915061354182614550565b604082019050919050565b6000613559601783613afb565b91506135648261459f565b601782019050919050565b600061357c601183613afb565b9150613587826145c8565b601182019050919050565b600061359f602f83613aea565b91506135aa826145f1565b604082019050919050565b6135be81613c8f565b82525050565b60006135d08285613219565b91506135dc8284613219565b91508190509392505050565b60006135f38261354c565b91506135ff8285613219565b915061360a8261356f565b91506136168284613219565b91508190509392505050565b6000602082019050613637600083018461317a565b92915050565b6000608082019050613652600083018761317a565b61365f602083018661317a565b61366c60408301856135b5565b818103606083015261367e81846131a7565b905095945050505050565b600060208201905061369e6000830184613189565b92915050565b60006020820190506136b96000830184613198565b92915050565b600060208201905081810360008301526136d981846131e0565b905092915050565b600060808201905081810360008301526136fb81876131e0565b905061370a602083018661317a565b61371760408301856135b5565b818103606083015261372981846131e0565b905095945050505050565b6000602082019050818103600083015261374d8161324a565b9050919050565b6000602082019050818103600083015261376d8161326d565b9050919050565b6000602082019050818103600083015261378d81613290565b9050919050565b600060208201905081810360008301526137ad816132b3565b9050919050565b600060208201905081810360008301526137cd816132d6565b9050919050565b600060208201905081810360008301526137ed816132f9565b9050919050565b6000602082019050818103600083015261380d8161331c565b9050919050565b6000602082019050818103600083015261382d8161333f565b9050919050565b6000602082019050818103600083015261384d81613362565b9050919050565b6000602082019050818103600083015261386d81613385565b9050919050565b6000602082019050818103600083015261388d816133a8565b9050919050565b600060208201905081810360008301526138ad816133cb565b9050919050565b600060208201905081810360008301526138cd816133ee565b9050919050565b600060208201905081810360008301526138ed81613411565b9050919050565b6000602082019050818103600083015261390d81613434565b9050919050565b6000602082019050818103600083015261392d81613457565b9050919050565b6000602082019050818103600083015261394d8161347a565b9050919050565b6000602082019050818103600083015261396d8161349d565b9050919050565b6000602082019050818103600083015261398d816134c0565b9050919050565b600060208201905081810360008301526139ad816134e3565b9050919050565b600060208201905081810360008301526139cd81613506565b9050919050565b600060208201905081810360008301526139ed81613529565b9050919050565b60006020820190508181036000830152613a0d81613592565b9050919050565b6000602082019050613a2960008301846135b5565b92915050565b6000606082019050613a4460008301866135b5565b8181036020830152613a5681856131e0565b9050613a6560408301846135b5565b949350505050565b6000613a77613a88565b9050613a838282613d37565b919050565b6000604051905090565b600067ffffffffffffffff821115613aad57613aac613e6f565b5b613ab682613e9e565b9050602081019050919050565b600081519050919050565b600081519050919050565b600082825260208201905092915050565b600082825260208201905092915050565b600081905092915050565b6000613b1182613c8f565b9150613b1c83613c8f565b9250827fffffffffffffffffffffffffffffffffffffffffffffffffffffffffffffffff03821115613b5157613b50613de2565b5b828201905092915050565b6000613b6782613c8f565b9150613b7283613c8f565b925082613b8257613b81613e11565b5b828204905092915050565b6000613b9882613c8f565b9150613ba383613c8f565b9250817fffffffffffffffffffffffffffffffffffffffffffffffffffffffffffffffff0483118215151615613bdc57613bdb613de2565b5b828202905092915050565b6000613bf282613c8f565b9150613bfd83613c8f565b925082821015613c1057613c0f613de2565b5b828203905092915050565b6000613c2682613c6f565b9050919050565b60008115159050919050565b6000819050919050565b60007fffffffff0000000000000000000000000000000000000000000000000000000082169050919050565b600073ffffffffffffffffffffffffffffffffffffffff82169050919050565b6000819050919050565b82818337600083830152505050565b60005b83811015613cc6578082015181840152602081019050613cab565b83811115613cd5576000848401525b50505050565b6000613ce682613c8f565b91506000821415613cfa57613cf9613de2565b5b600182039050919050565b60006002820490506001821680613d1d57607f821691505b60208210811415613d3157613d30613e40565b5b50919050565b613d4082613e9e565b810181811067ffffffffffffffff82111715613d5f57613d5e613e6f565b5b80604052505050565b6000613d7382613c8f565b91507fffffffffffffffffffffffffffffffffffffffffffffffffffffffffffffffff821415613da657613da5613de2565b5b600182019050919050565b6000613dbc82613c8f565b9150613dc783613c8f565b925082613dd757613dd6613e11565b5b828206905092915050565b7f4e487b7100000000000000000000000000000000000000000000000000000000600052601160045260246000fd5b7f4e487b7100000000000000000000000000000000000000000000000000000000600052601260045260246000fd5b7f4e487b7100000000000000000000000000000000000000000000000000000000600052602260045260246000fd5b7f4e487b7100000000000000000000000000000000000000000000000000000000600052604160045260246000fd5b6000601f19601f8301169050919050565b7f537472696e67733a20686578206c656e67746820696e73756666696369656e74600082015250565b7f455243373231456e756d657261626c653a206f776e657220696e646578206f7560008201527f74206f6620626f756e6473000000000000000000000000000000000000000000602082015250565b7f4552433732313a207472616e7366657220746f206e6f6e20455243373231526560008201527f63656976657220696d706c656d656e7465720000000000000000000000000000602082015250565b7f4552433732314964656e74696665723a204f6e6c79204d494e5445525f524f4c60008201527f45206861732074686973207065726d697373696f6e2e2020596f75722061636360208201527f6f756e7420646f6573206e6f742068617665204d494e5445525f524f4c450000604082015250565b7f4552433732313a207472616e736665722066726f6d20696e636f72726563742060008201527f6f776e6572000000000000000000000000000000000000000000000000000000602082015250565b7f4552433732313a20746f6b656e20616c7265616479206d696e74656400000000600082015250565b7f4552433732313a207472616e7366657220746f20746865207a65726f2061646460008201527f7265737300000000000000000000000000000000000000000000000000000000602082015250565b7f4552433732313a20617070726f766520746f2063616c6c657200000000000000600082015250565b7f4552433732313a206f70657261746f7220717565727920666f72206e6f6e657860008201527f697374656e7420746f6b656e0000000000000000000000000000000000000000602082015250565b7f4552433732313a20617070726f76652063616c6c6572206973206e6f74206f7760008201527f6e6572206e6f7220617070726f76656420666f7220616c6c0000000000000000602082015250565b7f4552433732313a2062616c616e636520717565727920666f7220746865207a6560008201527f726f206164647265737300000000000000000000000000000000000000000000602082015250565b7f4552433732313a206f776e657220717565727920666f72206e6f6e657869737460008201527f656e7420746f6b656e0000000000000000000000000000000000000000000000602082015250565b7f45524337323155524953746f726167653a2055524920736574206f66206e6f6e60008201527f6578697374656e7420746f6b656e000000000000000000000000000000000000602082015250565b7f4552433732313a206d696e7420746f20746865207a65726f2061646472657373600082015250565b7f43616e206f6e6c7920686f6c64206f6e65206469676974616c4944207065722060008201527f77616c6c65742c20746869732077616c6c657420616c7265616479206861732060208201527f6f6e652100000000000000000000000000000000000000000000000000000000604082015250565b7f45524337323155524953746f726167653a2055524920717565727920666f722060008201527f6e6f6e6578697374656e7420746f6b656e000000000000000000000000000000602082015250565b7f4552433732313a20617070726f76656420717565727920666f72206e6f6e657860008201527f697374656e7420746f6b656e0000000000000000000000000000000000000000602082015250565b7f4552433732314d657461646174613a2055524920717565727920666f72206e6f60008201527f6e6578697374656e7420746f6b656e0000000000000000000000000000000000602082015250565b7f4552433732313a20617070726f76616c20746f2063757272656e74206f776e6560008201527f7200000000000000000000000000000000000000000000000000000000000000602082015250565b7f4552433732313a207472616e736665722063616c6c6572206973206e6f74206f60008201527f776e6572206e6f7220617070726f766564000000000000000000000000000000602082015250565b7f4552433732314964656e74696665723a2074686973206469676974616c20494460008201527f20697320626f756e6420746f20796f75722077616c6c65742e2020436f6e746160208201527f637420746865206d696e746572202853796e6368726f6e792920696620796f7560408201527f207769736820746f206368616e676520746865206c6f636174696f6e206f662060608201527f796f757220494400000000000000000000000000000000000000000000000000608082015250565b7f455243373231456e756d657261626c653a20676c6f62616c20696e646578206f60008201527f7574206f6620626f756e64730000000000000000000000000000000000000000602082015250565b7f416363657373436f6e74726f6c3a206163636f756e7420000000000000000000600082015250565b7f206973206d697373696e6720726f6c6520000000000000000000000000000000600082015250565b7f416363657373436f6e74726f6c3a2063616e206f6e6c792072656e6f756e636560008201527f20726f6c657320666f722073656c660000000000000000000000000000000000602082015250565b61464981613c1b565b811461465457600080fd5b50565b61466081613c2d565b811461466b57600080fd5b50565b61467781613c39565b811461468257600080fd5b50565b61468e81613c43565b811461469957600080fd5b50565b6146a581613c8f565b81146146b057600080fd5b5056fe257320686173206265656e20676976656e206120746f6b656e207769746820696420257320616e6420757269202573a26469706673582212204aa6c5623a85a84fe80f37b60d88f43557309106d8cdec0d0429b539c08da42d64736f6c63430008040033",
  "linkReferences": {},
  "deployedLinkReferences": {}
}